:020000040800F2
:100000001822002001010008D926000869250008EF
:10001000D5260008DD080008193700080000000098
:10002000000000000000000000000000B1300008E7
:10003000E10800080000000011300008D530000879
:100040001B0100081B0100081B0100081B01000820
:100050001B0100081B0100081B0100081B01000810
:100060001B0100081B0100081B0100081B01000800
:100070001B0100081B0100081B0100081B010008F0
:100080001B0100081B0100081B0100081B010008E0
:100090001B0100081B0100081B0100081B010008D0
:1000A0001B0100081B0100081B0100081B010008C0
:1000B0001B0100081B010008F13100081B010008AA
:1000C0001B0100081B0100081B0100081B010008A0
:1000D0001B010008093700081B0100081B0100086C
:1000E0001B0100081B0100081B010008DFF80CD0F1
:1000F00000F03AFB004800470139000818220020B0
:100100000648804706480047FEE7FEE7FEE7FEE7B1
:10011000FEE7FEE7FEE7FEE7FEE7FEE791310008B7
:10012000ED00000840EA01039B0703D009E008C97D
:10013000121F08C0042AFAD203E011F8013B00F8AC
:10014000013B521EF9D27047D2B201E000F8012BF8
:10015000491EFBD270470022F6E710B513460A4647
:1001600004461946FFF7F0FF204610BD30B505469E
:100170002A460B4612F8010B13F8014B08B1A042B6
:10018000F8D01CB1002802D06D1CF1E7284630BD24
:1001900010B5044604E00B7800F8013B03B1491C9C
:1001A000521EF8D2204610BD10B5002200E0521CAD
:1001B000835C8C5CA34201D1002BF8D1D8B2E1B2B0
:1001C000401A10BD70B5064605F012F804680546E1
:1001D0000A220021304600F002FA2C6070BD2DE9A1
:1001E000FE4F804681EA0300C00F0C46009021F0CC
:1001F000004123F00045B8EB0200A94105D240467A
:10020000214690461C460B46024623F00040104310
:1002100047D0270DC7F30A00C3F30A510290401AD2
:10022000019040286BDAC3F3130040F4801B009860
:10023000924620B10023D2EB030A63EB0B0B01982B
:100240005946C0F14002504600F098F906460D4666
:1002500050465946019A00F0B0F910EB0800614190
:10026000002487EA115284EAE7731A4340D0009AC7
:1002700062B3019A012A4FEA075215DC001B61EBB9
:1002800002014FF0004202EA0752CDE90042001C91
:1002900041F5801132462B4600F0E8F903B0BDE885
:1002A000F08F40462146F9E7001B61EB0201001C7C
:1002B00041F5801300185B412018A2F5001747EBA9
:1002C000030140EAD570B6196D4111E06D084FEA9F
:1002D000360645EAC0754FEA0752001B61EB020182
:1002E000001C41F5801149084FEA300000195141C6
:1002F00032462B4603B0BDE8F04F00F0A8B9009895
:10030000012240000023D0EB020263EBE07300986F
:1003100021464FEAE074B8EB000061EB0401E9E725
:1003200083F000435BE781F0004158E72DE9FE4F81
:1003300081EA030404F0004421F0004100944FF0EE
:10034000000B23F0004350EA01045ED052EA03049C
:100350005BD0C3F30A54C1F30A552C44A4F2F3341E
:100360000194A0FB0254C1F3130141F48011C3F3C3
:10037000130343F4801301FB024400FB034E840A81
:10038000970A44EA815447EA8357A4FB0768029519
:100390008D0A05FB07854FEA932C04FB0C542705B7
:1003A000029D4FEA065847EA1637B5EB08056EEB93
:1003B000070C870E920E47EA811742EA8312A7FBC9
:1003C0000201B6EB0B0164EB00042B0D43EA0C3386
:1003D0005E1844EB1C50DA465146E7FB0201C5F3B8
:1003E00013044FEA0B3343EA14534FEA0432019CDF
:1003F00043EA0603A4F10C040294009CCDE900B486
:1004000000F034F903B0BDE8F08F00200146F9E7B1
:100410002DE9F04D81EA030404F0004B21F0004582
:1004200014464FF0000A23F0004150EA050220D0A4
:1004300054EA01021DD0C5F30A570246C5F313035F
:10044000C1F31300C1F30A5640F4801543F480133E
:10045000A7EB0608101BD64608F2FD3873EB050023
:1004600002D308F1010801E092185B41B8F1000FD6
:1004700003DA00200146BDE8F08D00204FF4801122
:10048000064684460EE0171B73EB050705D3121BC7
:1004900063EB050306434CEA010C49084FEA3000C0
:1004A00092185B4150EA0107EDD152EA030012D0E5
:1004B00082EA040083EA0501084305D0101BAB4122
:1004C00006D20122002306E000224FF0004302E0A2
:1004D0006FF0010253101AEB06004CEB085110EBC1
:1004E0000A0041EB0B01BDE8F04D00F0B0B830B5AB
:1004F0000B46014600202022012409E021FA02F5E2
:100500009D4205D303FA02F5491B04FA02F528447B
:10051000151EA2F10102F1DC30BD2DE9F05F0546A8
:10052000002092469B4688460646814640241BE0B2
:10053000284641464746224600F02FF853465A4681
:10054000C01A914110D311461846224600F016F801
:100550002D1A67EB01084F4622460120002100F0CA
:100560000DF817EB00094E41201EA4F10104DFDC59
:10057000484631462A464346BDE8F09F202A04DB20
:10058000203A00FA02F1002070479140C2F12003A6
:1005900020FA03F3194390407047202A04DB203AE5
:1005A00021FA02F00021704721FA02F3D040C2F193
:1005B00020029140084319467047202A06DBCB17DA
:1005C000203A41FA02F043EAE07306E041FA02F30E
:1005D000D040C2F1200291400843194670472DE9EE
:1005E000F04791460F4680460446002614F8015B0A
:1005F0002DB100F0CBF80068405DC007F6D12B2D7F
:1006000002D02D2D18D0641E4A463946204600F0EF
:10061000C1F827B13968A14201D1C7F8008071053E
:100620004FF002040BD54042002803DD04F0E0FD4A
:100630000460A007BDE8F08746F48066E4E7002880
:10064000F8DA04F0D5FD04606FF00040F2E710B571
:10065000141E73F1000408DA401C41F100019218E5
:100660005B411A4301D120F0010010BD2DE9F04D8E
:1006700092469B4611B1B1FA81F202E0B0FA80F2E3
:1006800020329046FFF77AFF04460F4640EA0A0000
:1006900041EA0B0153465A46084313D0114653EA28
:1006A000010019D0C8F140025046FFF776FF054619
:1006B0000E46504659464246FFF760FF084305D0B4
:1006C000012004E020463946BDE8F08D00200543B6
:1006D00046EAE0762C4337430A986305E40AA0EB28
:1006E00008000022FD0A44EA47540A3002D50020DF
:1006F0000146E9E7010510196941DDE908450019DE
:100700006941BDE8F04DA2E7C1F30A52C1F31301FC
:1007100040F2FF3341F480119A4202DA0020014690
:10072000704740F233439A42A2F2334202DC524213
:10073000FFF733BFFFF722BF30B5041E71F100048D
:1007400004DB4FF00044404264EB0101141E73F1DE
:10075000000405DB1C464FF00043524263EB0403E8
:10076000994208BF904230BD064C074D06E0E06854
:1007700040F0010394E8070098471034AC42F6D3E8
:10078000FFF7B8FC80680008A068000800487047C0
:100790004C5B00082DE9F05F824600780027154683
:1007A0008B460AF10104B946302801D09DB113E00F
:1007B00014F8010B0127782803D0582801D045B13F
:1007C0000AE00DB1102D07D10027102514F8010BF8
:1007D00002E0082500E00A250026B0460EE005FBF1
:1007E000080005FB06F1012701EB10461FFA80F80F
:1007F000B6F5803F00D3B94614F8010B294600F046
:1008000018F80028EBDABBF1000F05D00FB1641E19
:1008100000E05446CBF80040B9F1000F06D004F0D8
:10082000E7FC02210160C81EBDE8F09F48EA0640CF
:10083000FAE73A2800D2303820F02002412A01D3CA
:10084000A2F13700884201D34FF0FF30704700001B
:1008500080B586B00146049040F23C40C2F20000F0
:1008600000683228039104DBFFE74FF0FF3005906A
:1008700030E040F23C40C2F20000016801EBC101EF
:1008800040F24042C2F2000202EB4101049B4FF0F1
:100890000F0C02900846194601926246FFF778FC59
:1008A00002990A6802EBC202019B03EB42024FF07D
:1008B000000C82F80FC00A6802EBC20203EB42028E
:1008C000A2F810C00A6801320A600A68013A05926B
:1008D0000090FFE7059806B080BD0000FFE7FEE747
:1008E0007047000081B0EFF3108072B60090FFE710
:1008F000FEE7000080B584B0014602900020019020
:100900000091FFE7019840F23C41C2F20001096802
:10091000884217DAFFE7019800EBC00040F240413F
:10092000C2F2000101EB40000299FFF73DFC0028F4
:1009300003D1FFE70198039008E0FFE70198013039
:100940000190DFE74FF0FF300390FFE7039804B01A
:1009500080BD000080B540F60000C4F20100102107
:10096000002200F07DFA80BD80B540F60000C4F2A0
:1009700001001021012200F073FA80BD80B588B01B
:100980000146079000208DF81B00079890F8210081
:100990000228059107D0FFE7079804218163012011
:1009A0008DF81B0077E007980068016821F00E01C0
:1009B000016007980068016821F001010160079853
:1009C00000680821C4F20201884203D1FFE7012038
:1009D000049047E0079800681C21C4F20201884295
:1009E00003D1FFE71020039039E007980068302119
:1009F000C4F20201884204D1FFE74FF480700290F4
:100A00002AE0079800684421C4F20201884204D118
:100A1000FFE74FF4805001901BE0079800685821D1
:100A2000C4F20201884204D1FFE74FF48030009005
:100A30000CE0079800686C21C4F202014FF080724C
:100A4000884208BF4FF480120092FFE7009801909F
:100A5000FFE701980290FFE702980390FFE70398F1
:100A60000490FFE704980421C4F20201086007988B
:100A7000012180F82110FFE70798002180F820105D
:100A8000FFE70798406B002804D0FFE70798416B09
:100A90008847FFE7FFE79DF81B0008B080BD000016
:100AA00080B584B001460390009100F0FBF90290FC
:100AB0000398019001980130002809D0FFE740F227
:100AC0000D00C2F200000078019908440190FFE790
:100AD000FFE700F0E7F9DDF808E0A0EB0E00DDF835
:100AE00004E0704501D2FFE7F3E704B080BD0000E9
:100AF00093B00A46034612901191002010900C907A
:100B000008920793FFE7119800681099C8400028E1
:100B100000F08881FFE71098012101FA00F00F90A2
:100B2000119800680F9908400E900E980F9988420E
:100B300040F07481FFE7119840680028069051D07A
:100B4000FFE7069801283AD0FFE7069802283FD031
:100B5000FFE70698032860D0FFE70698112832D0F7
:100B6000FFE70698122838D0FFE70020C1F21100F5
:100B70000699814236D0FFE70020C1F212000699A3
:100B800081422FD0FFE70020C1F221000699814267
:100B900028D0FFE70020C1F222000699814221D02F
:100BA000FFE70020C1F23100069981421AD0FFE729
:100BB0000020C1F232000699814213D030E0119832
:100BC000C0680C902DE01198C06804300C9028E0AB
:100BD0001198C06808300C9023E01198C0680C3060
:100BE0000C901EE011988068002803D1FFE70420D4
:100BF0000C9011E011988068012806D1FFE70820C9
:100C00000C900F981299086105E008200C900F983D
:100C100012994861FFE7FFE703E000200C9000E035
:100C2000FFE70E98FF2803D8FFE71298059003E02E
:100C3000129804300590FFE705980B900E98FF2856
:100C400004D8FFE710988000049006E010986FF039
:100C50001F0101EB80000490FFE704980A900B98B5
:100C600000680A990F228A4090430C9A02FA01F117
:100C700008430B99086011984068C000002840F1B3
:100C8000CC80FFE7FFE741F21800C4F202000168E0
:100C900041F001010160006800F00100099009982D
:100CA0000390FFE7109820F003000821C4F201012F
:100CB00040580D90109800F0030080000F2101FAB9
:100CC00000F00D9921EA00000D90129840F6000105
:100CD000C4F20101884203D1FFE70020029026E020
:100CE000129840F60041C4F20101884203D1FFE7A7
:100CF0000120019018E0129841F20001C4F20101B4
:100D0000884203D1FFE7022000900AE0129841F2E6
:100D10000041C4F201010422884208BF032200926C
:100D2000FFE700980190FFE701980290FFE7029823
:100D3000109901F00301890088400D9908430D9036
:100D40000D98109921F003010822C4F20102885085
:100D500011984068C003002809D5FFE70E9840F2BB
:100D60000041C4F201010A681043086009E00E98CE
:100D700040F20041C4F201010A6822EA0000086062
:100D8000FFE7119840688003002809D5FFE70E9817
:100D900040F20441C4F201010A681043086009E00E
:100DA0000E9840F20441C4F201010A6822EA0000F0
:100DB0000860FFE711984068C002002809D5FFE7E6
:100DC0000E9840F20841C4F201010A68104308601D
:100DD00009E00E9840F20841C4F201010A6822EAD3
:100DE00000000860FFE7119840688002002809D5DC
:100DF000FFE70E9840F20C41C4F201010A6810436B
:100E0000086009E00E9840F20C41C4F201010A6842
:100E100022EA00000860FFE7FFE7FFE710980130D3
:100E2000109070E613B0704784B00A4603460390F2
:100E3000ADF80A100398C068BDF80A100842019284
:100E4000009305D0FFE7BDF80A000399486104E06C
:100E5000BDF80A0003990861FFE704B0704700007D
:100E600080B585B013468C4686460490ADF80E10CA
:100E70008DF80D209DF80D0000280293CDF804C0D8
:100E8000CDF800E005D0FFE7BDF80E000499086139
:100E900005E0BDF80E00000404990861FFE705B005
:100EA00080BD000041F66C50C2F20000006870473F
:100EB00040F20D00C2F20000007841F66C51C2F21F
:100EC00000010A68104408607047000080B582B0D5
:100ED00042F20000C4F20200016841F0100101601A
:100EE000032000F0EDF80F2000F006F8019000F06C
:100EF00083F8002002B080BD80B590B001460F900D
:100F00000020089007908DF817000391FFE741F249
:100F10001C00C4F20200016841F004010160006895
:100F200000F00400049004980290FFE70AA806A9C4
:100F300000F006FA0D9808900898002804D1FFE701
:100F400000F038FA099004E000F034FA400009900B
:100F5000FFE709984DF68361C4F21B31A0FB010144
:100F60004FF0FF3202EB9141079140F2C471C2F29F
:100F7000000140F60002C4F200020A6040F2E732CB
:100F8000CA60079A4A6000220A618A608A610190F9
:100F9000084600F003FE8DF817009DF817000028A2
:100FA00026D1FFE740F2C470C2F2000000F030FE2C
:100FB0008DF817009DF81700002818D1FFE71E20B4
:100FC00000F04EF80F980F280CD8FFE70F991E205D
:100FD000002200F051F80F9840F21001C2F2000117
:100FE000086003E001208DF81700FFE7FFE7FFE747
:100FF0009DF8170010B080BD85B0FFE741F21800E2
:10100000C4F20200016841F001010160006800F0D3
:101010000100049004980190FFE7FFE741F21C00F3
:10102000C4F20200016841F080510160006800F0E4
:101030008050039003980090FFE7FFE70420C4F27C
:10104000010001680291029921F0E0610291029988
:1010500041F00071029102990160FFE705B070470D
:1010600080B582B001468DF807009DF90700009118
:1010700002F068FB02B080BD80B58AB013468C4692
:1010800086468DF827000891079200200690059368
:10109000CDF810C0CDF80CE002F070FB0690069879
:1010A0000899079A9DF92730029301F017FB0299DE
:1010B00001900846019902F069FB0AB080BD00006A
:1010C00080B582B0014601900198009102F084FB46
:1010D00002B080BD80B588B00A46034606900591EF
:1010E000069800280392029304D1FFE701208DF8AF
:1010F0001F0020E1059842F20001C4F202010968D4
:1011000001F00701884216D9FFE742F20000C4F25D
:101110000200016821F00701059A1143016000688F
:1011200000F007000599884204D0FFE701208DF800
:101130001F0000E1FFE706980068800700282AD515
:10114000FFE7069800684007002809D5FFE741F24D
:101150000400C4F20200016841F4E0610160FFE7AD
:10116000069800680007002809D5FFE741F204004F
:10117000C4F20200016841F460510160FFE741F2EE
:101180000400C4F20200016821F0F001069A92689E
:1011900011430160FFE706980068C007002862D08D
:1011A000FFE70698406801280ED1FFE741F20000F2
:1011B000C4F20200006810F4003F04D1FFE70120F0
:1011C0008DF81F00B7E021E00698406802280ED194
:1011D000FFE741F20000C4F20200006810F0007F57
:1011E00004D1FFE701208DF81F00A4E00DE041F2DB
:1011F0000000C4F20200006810F0020F04D1FFE703
:1012000001208DF81F0096E0FFE7FFE741F20400A0
:10121000C4F20200016821F00301069A52681143EA
:101220000160FFF73FFE0490FFE741F20400C4F2C3
:101230000200006800F00C0006994968B0EB810FCD
:1012400010D0FFE7FFF72EFEDDF810E0A0EB0E0058
:1012500041F2893E704504D3FFE703208DF81F005B
:1012600069E0E2E7FFE7059842F20001C4F20201FB
:10127000096801F00701884216D2FFE742F2000038
:10128000C4F20200016821F00701059A11430160D0
:10129000006800F007000599884204D0FFE70120AC
:1012A0008DF81F0047E0FFE7069800684007002818
:1012B0000CD5FFE741F20400C4F20200016821F4FA
:1012C000E061069AD26811430160FFE70698006862
:1012D000000700280DD5FFE741F20400C4F2020028
:1012E000016821F46051069A126941EAC201016065
:1012F000FFE700F087F841F2040EC4F2020EDEF8B8
:1013000000E0CEF3031E45F65031C0F6000111F89F
:101310000E10C84040F20801C2F20001086040F21D
:101320001000C2F200000068FFF7E6FD00218DF812
:101330001F100190FFE79DF81F0008B080BD00005E
:1013400084B00A4603460390029103980F2101607E
:1013500041F20400C4F20200016801F00301DDF86B
:101360000CC0CCF80410016801F0F001DDF80CC0ED
:10137000CCF80810016801F4E061DDF80CC0CCF88D
:101380000C10006800F46050C0080399086142F234
:101390000000C4F20200006800F007000299086033
:1013A0000192009304B0704740F20800C2F20000BE
:1013B0000068704780B5FFF7F7FF41F2040EC4F2F2
:1013C000020EDEF800E0CEF3022E45F66031C0F6E4
:1013D000000111F80E10C84080BD000080B5FFF775
:1013E000E3FF41F2040EC4F2020EDEF800E0CEF399
:1013F000C22E45F66031C0F6000111F80E10C8404B
:1014000080BD000086B000200590049003900290FB
:10141000019041F20400C4F20200006805900598B2
:1014200000F00C0001460028009140D0FFE7009832
:10143000042804D0FFE70098082806D038E041F2DD
:101440000020C0F27A00019038E00598C0F3834094
:1014500045F66831C0F60001085C02909DF8160060
:10146000C007002818D0FFE741F20400C4F20200D0
:101470000068C0F3404045F67831C0F60001085CD2
:101480000490029841F20021C0F27A014843049985
:10149000B0FBF1F0039007E0029840F60011C0F2B3
:1014A0003D0148430390FFE70398019006E0FFE702
:1014B00041F20020C0F27A000190FFE7019806B0E7
:1014C0007047000080B588B0014606900698002855
:1014D000019104D1FFE701208DF81F004EE306982B
:1014E0000068C007002800F0B580FFE741F2040063
:1014F000C4F20200006800F00C00042813D0FFE7DB
:1015000041F20400C4F20200006800F00C00082858
:101510001CD1FFE741F20400C4F20200006810F49D
:10152000803F13D0FFE741F20000C4F202000068E0
:1015300010F4003F09D0FFE706984068002804D166
:10154000FFE701208DF81F0018E382E0FFE706980F
:101550004068B0F5803F09D1FFE741F20000C4F2D6
:101560000200016841F48031016033E00698406870
:1015700000280DD1FFE741F20000C4F2020001682B
:1015800021F480310160016821F48021016020E0B4
:1015900006984068B0F5A02F0DD1FFE741F200009A
:1015A000C4F20200016841F480210160016841F445
:1015B000803101600CE041F20000C4F202000168D9
:1015C00021F480310160016821F480210160FFE78E
:1015D000FFE7FFE7FFE70698406800281CD0FFE719
:1015E000FFF760FC0590FFE741F20000C4F2020043
:1015F000006810F4003F0ED1FFE7FFF753FCDDF861
:1016000014E0A0EB0E00652804D3FFE703208DF85B
:101610001F00B3E2E8E71BE0FFF744FC0590FFE79B
:1016200041F20000C4F20200006810F4003F0ED046
:10163000FFE7FFF737FCDDF814E0A0EB0E006528AC
:1016400004D3FFE703208DF81F0097E2E8E7FFE7E8
:10165000FFE7FFE7069800688007002840F19280C6
:10166000FFE741F20400C4F20200006810F00C0F22
:1016700013D0FFE741F20400C4F20200006800F05A
:101680000C00082829D1FFE741F20400C4F202004F
:10169000006810F4803F20D1FFE741F20000C4F25F
:1016A0000200006810F0020F09D0FFE706980069F9
:1016B000012804D0FFE701208DF81F005EE241F20F
:1016C0000000C4F20200016821F0F801069A526994
:1016D00041EAC2010160FFE753E006980069002873
:1016E0002DD0FFE70020C4F2422001210160FFF766
:1016F000D9FB0590FFE741F20000C4F20200006848
:1017000010F0020F0ED1FFE7FFF7CCFBDDF814E07D
:10171000A0EB0E00032804D3FFE703208DF81F0081
:101720002CE2E8E741F20000C4F20200016821F077
:10173000F801069A526941EAC201016020E00020E6
:10174000C4F2422000210160FFF7ACFB0590FFE7E7
:1017500041F20000C4F20200006810F0020F0ED047
:10176000FFE7FFF79FFBDDF814E0A0EB0E00032876
:1017700004D3FFE703208DF81F00FFE1E8E7FFE750
:10178000FFE7FFE706980068000700284DD5FFE750
:1017900006988069002825D0FFE740F28040C4F217
:1017A000422001210160FFF77DFB0590FFE741F238
:1017B0002400C4F20200006810F0020F0ED1FFE70F
:1017C000FFF770FBDDF814E0A0EB0E00032804D354
:1017D000FFE703208DF81F00D0E1E8E7012001F0CA
:1017E00039FC21E040F28040C4F242200021016037
:1017F000FFF758FB0590FFE741F22400C4F2020016
:10180000006810F0020F0ED0FFE7FFF74BFBDDF88A
:1018100014E0A0EB0E00032804D3FFE703208DF8AB
:101820001F00ABE1E8E7FFE7FFE706980068400725
:10183000002840F1E180FFE700208DF80F0041F221
:101840001C00C4F20200006810F0805F14D1FFE7B2
:10185000FFE741F21C00C4F20200016841F0805130
:101860000160006800F08050029002980090FFE74D
:1018700001208DF80F00FFE747F20000C4F20000DE
:10188000006810F4807F24D1FFE747F20000C4F223
:101890000000016841F480710160FFF703FB0590CF
:1018A000FFE747F20000C4F20000006810F4807FF8
:1018B0000ED1FFE7FFF7F6FADDF814E0A0EB0E001B
:1018C000652804D3FFE703208DF81F0056E1E8E701
:1018D000FFE7FFE70698C068012809D1FFE741F25A
:1018E0002000C4F20200016841F00101016032E011
:1018F0000698C06800280DD1FFE741F22000C4F22D
:101900000200016821F001010160016821F0040179
:1019100001601FE00698C06805280DD1FFE741F27D
:101920002000C4F20200016841F004010160016876
:1019300041F0010101600CE041F22000C4F202001C
:10194000016821F001010160016821F004010160DA
:10195000FFE7FFE7FFE7FFE70698C06800281ED013
:10196000FFE7FFF79FFA0590FFE741F22000C4F27E
:101970000200006810F0020F10D1FFE7FFF792FAA3
:10198000DDF814E0A0EB0E0041F2893E704504D36F
:10199000FFE703208DF81F00F0E0E6E71DE0FFF70A
:1019A00081FA0590FFE741F22000C4F202000068CE
:1019B00010F0020F10D0FFE7FFF774FADDF814E023
:1019C000A0EB0E0041F2893E704504D3FFE70320EF
:1019D0008DF81F00D2E0E6E7FFE79DF80F00012831
:1019E00009D1FFE741F21C00C4F20200016821F0B6
:1019F00080510160FFE7FFE70698C069002800F00A
:101A0000B980FFE741F20400C4F20200006800F070
:101A10000C00082800F08880FFE70698C0690228BB
:101A200060D1FFE76020C4F2422000210160FFF78F
:101A300039FA0590FFE741F20000C4F202000068A5
:101A400010F0007F0ED0FFE7FFF72CFADDF814E06E
:101A5000A0EB0E00032804D3FFE703208DF81F003E
:101A60008CE0E8E70698006AB0F5803F0CD1FFE70C
:101A700041F20400C4F20200016821F40031069A28
:101A8000926811430160FFE741F20400C4F20200D2
:101A9000016821F47411069A136A526A1A431143B9
:101AA00001606020C4F2422001210160FFF7FAF9D1
:101AB0000590FFE741F20000C4F20200006810F058
:101AC000007F0ED1FFE7FFF7EDF9DDF814E0A0EBA2
:101AD0000E00032804D3FFE703208DF81F004DE01C
:101AE000E8E720E06020C4F2422000210160FFF717
:101AF000D9F90590FFE741F20000C4F20200006846
:101B000010F0007F0ED0FFE7FFF7CCF9DDF814E00E
:101B1000A0EB0E00032804D3FFE703208DF81F007D
:101B20002CE0E8E7FFE724E00698C069012804D12B
:101B3000FFE701208DF81F0020E041F20400C4F20D
:101B4000020000680490049800F480300699096A45
:101B5000884208D1FFE7049800F470100699496A9A
:101B6000884204D0FFE701208DF81F0006E0FFE760
:101B7000FFE7FFE700208DF81F00FFE79DF81F003B
:101B800008B080BD82B001460190009102B070475C
:101B900082B001460190009102B0704780B584B0D8
:101BA0000146029002980028019104D1FFE701202C
:101BB0008DF80F0021E0029890F83D00002808D130
:101BC000FFE70298002180F83C10029800F01AF814
:101BD000FFE70298022180F83D10029850F8041B9C
:101BE00000900846009901F00BFB0298012180F853
:101BF0003D1000208DF80F00FFE79DF80F0004B0A6
:101C000080BD000082B001460190009102B0704793
:101C100083B00146029002980068C26842F0010257
:101C2000C26002980068806800F007000190019887
:101C30000628009107D0FFE702980068016841F08C
:101C400001010160FFE7002003B0704782B0014648
:101C50000190009102B0704780B582B001460190BA
:101C600001980068006900F002000022B2EB500FFA
:101C7000009129D0FFE701980068C06800F00200D9
:101C80000021B1EB500F1ED0FFE7019800686FF004
:101C900002010161019801210177019800688069C2
:101CA00010F0030F04D0FFE70198FFF7CFFF06E025
:101CB000019800F017F9019800F01AF9FFE7019870
:101CC00000210177FFE7FFE701980068006900F055
:101CD00004000021B1EB900F29D0FFE701980068C4
:101CE000C06800F004000021B1EB900F1ED0FFE7A8
:101CF000019800686FF004010161019802210177E9
:101D000001980068806910F4407F04D0FFE70198D3
:101D1000FFF79CFF06E0019800F0E4F8019800F05E
:101D2000E7F8FFE7019800210177FFE7FFE7019857
:101D30000068006900F008000021B1EBD00F29D045
:101D4000FFE701980068C06800F008000021B1EBCF
:101D5000D00F1ED0FFE7019800686FF00801016105
:101D600001980421017701980068C06910F0030F01
:101D700004D0FFE70198FFF769FF06E0019800F043
:101D8000B1F8019800F0B4F8FFE70198002101775D
:101D9000FFE7FFE701980068006900F010000021EC
:101DA000B1EB101F29D0FFE701980068C06800F070
:101DB00010000021B1EB101F1ED0FFE70198006852
:101DC0006FF0100101610198082101770198006806
:101DD000C06910F4407F04D0FFE70198FFF736FF99
:101DE00006E0019800F07EF8019800F081F8FFE726
:101DF000019800210177FFE7FFE70198006800697B
:101E000010F0010F11D0FFE701980068C06810F0D2
:101E1000010F09D0FFE7019800686FF0010101612F
:101E2000019800F06BF8FFE7FFE701980068006990
:101E300000F080000021B1EBD01F14D0FFE7019823
:101E40000068C06800F080000021B1EBD01F09D00D
:101E5000FFE7019800686FF0800101610198FFF7CA
:101E600091FEFFE7FFE701980068006900F040007D
:101E70000021B1EB901F14D0FFE701980068C06803
:101E800000F040000021B1EB901F09D0FFE701985E
:101E900000686FF040010161019800F043F8FFE72E
:101EA000FFE701980068006900F020000021B1EB15
:101EB000501F14D0FFE701980068C06800F02000B0
:101EC0000021B1EB501F09D0FFE7019800686FF0C7
:101ED000200101610198FFF75BFEFFE7FFE702B019
:101EE00080BD000082B001460190009102B07047B1
:101EF00082B001460190009102B0704780B582B077
:101F0000014601900198006840F60002C4F2000208
:101F10009042009103D1FFE7FEF7CAFFFFE702B04E
:101F200080BD000082B001460190009102B0704770
:101F300082B001460190009102B0704780B58CB02C
:101F400001460B900B98006800680A900B98006897
:101F5000C06809900B9800684069089000200790BD
:101F600006900A9800F00F00079007980028059146
:101F700012D1FFE79DF82800800600280BD5FFE767
:101F80009DF824008006002805D5FFE70B9801F096
:101F9000F1F90490E0E0FFE70798002800F0BA802C
:101FA000FFE79DF82000C007002807D1FFE7BDF834
:101FB000240010F4907F00F0AD80FFE79DF828002A
:101FC000C00700280CD0FFE79DF82500C0070028B7
:101FD00006D0FFE70B98C16B41F00101C163FFE739
:101FE0009DF82800400700280CD5FFE79DF8200049
:101FF000C007002806D0FFE70B98C16B41F0020133
:10200000C163FFE79DF82800800700280CD5FFE793
:102010009DF82000C007002806D0FFE70B98C16B91
:1020200041F00401C163FFE79DF828000007002884
:102030000CD5FFE79DF82000C007002806D0FFE779
:102040000B98C16B41F00801C163FFE70B98C06BAF
:1020500000285ED0FFE79DF82800800600280BD5F9
:10206000FFE79DF824008006002805D5FFE70B98C0
:1020700001F080F90390FFE70B9800684069C0F316
:10208000801006900B98C06B10F0080F04D1FFE78A
:102090000698002833D0FFE70B9801F03FF90B9822
:1020A0000068406910F0400F24D0FFE70B980068EB
:1020B000416921F0400141610B98406B002814D028
:1020C000FFE70B98406B43F2F921C0F60001416332
:1020D0000B98406BFEF752FC002805D0FFE70B98E9
:1020E000406B416B8847FFE703E00B98FFF720FF49
:1020F000FFE703E00B98FFF71BFFFFE708E00B98F3
:10210000FFF716FF0B984FF0000EC0F83CE0FFE71A
:10211000FFE721E09DF82800000600280BD5FFE727
:102120009DF824000006002805D5FFE70B9801F074
:1021300037FA029010E09DF82800400600280BD5E1
:10214000FFE79DF824004006002805D5FFE70B981F
:1021500001F0FAF80190FFE70CB080BD80B584B0C3
:102160000146029002980028019104D1FFE7012066
:102170008DF80F0041E002988069002801D0FFE748
:1021800000E0FFE7029890F83900002808D1FFE747
:102190000298002180F83810029800F033F8FFE729
:1021A0000298242180F8391002980068C16821F44F
:1021B0000051C160029801F05BF902980068016962
:1021C00021F49041016102980068416921F02A01DF
:1021D000416102980068C16841F40051C1600298F1
:1021E0000021C16302984FF0200E80F839E0029878
:1021F00080F83AE08DF80F10FFE79DF80F0004B06B
:1022000080BD000080B58EB001460D9000200C907E
:102210000B900A9009900D98006843F60002C4F2F2
:1022200001029042069146D1FFE7FFE741F2180014
:10223000C4F20200016841F480410160006800F4CA
:102240008040089008980590FFE7FFE741F21800EA
:10225000C4F20200016841F004010160006800F06E
:102260000400079007980490FFE74FF4007009906E
:1022700002200A9003200C9040F60000C4F20100F6
:1022800009A903900291FEF733FC4FF48060099096
:1022900000200A900B900399019008460299FEF7DE
:1022A00027FC252000900199019AFEF7E5FE009891
:1022B000FEF7D6FEFFE70EB080BD000080B587B008
:1022C00013468C46864605900491ADF80E2005987D
:1022D00090F83A0020280293CDF804C0CDF800E031
:1022E0004CD1FFE70498002805D0FFE7BDF80E00A9
:1022F000002804D1FFE701208DF81B0042E0FFE732
:10230000059890F83800012804D1FFE702208DF8E5
:102310001B0037E00598012180F83810FFE7FFE740
:10232000049805998862BDF80E0005998885BDF866
:102330000E000599C88505980021C16305982221E2
:1023400080F83A10FFE70598002180F83810FFE781
:1023500005980068C16841F48071C1600598006803
:10236000416941F00101416105980068C16841F08F
:102370002001C16000208DF81B0003E002208DF8D1
:102380001B00FFE79DF81B0007B080BD80B584B03F
:10239000014603900398006843F60002C4F201026C
:1023A0009042029117D1FFE740F6E000C2F2000030
:1023B000017840F6E202C2F200020190104602F0FB
:1023C00021F940F60400C2F2000001220199FFF752
:1023D00075FF0090FFE704B080BD0000B0B58CB081
:1023E0009C4696460C4605460A900991ADF8222077
:1023F0000793002005900A9890F839002028CDF81E
:1024000010C0CDF80CE00294019540F09F80FFE7EA
:102410000998002805D0FFE7BDF82200002804D164
:10242000FFE701208DF82F0094E0FFE70A9890F86D
:102430003800012804D1FFE702208DF82F0089E041
:102440000A98012180F83810FFE7FFE70A98002179
:10245000C1630A98212180F83910FEF723FD059009
:10246000BDF822000A998884BDF822000A99C88420
:10247000FFE70A98C08C00284AD0FFE70A98C18C71
:102480000139C1840A988068B0F5805F27D1FFE7E1
:102490000A98059B07996A4611608021002201F085
:1024A000D5F8002804D0FFE703208DF82F0051E075
:1024B00009980690069800886FF35F200A990968CA
:1024C00048600A980069002804D1FFE709980230A3
:1024D000099003E0099801300990FFE717E00A9896
:1024E000059B07996A4611608021002201F0AEF831
:1024F000002804D0FFE703208DF82F002AE0099878
:10250000411C099100780A9909684860FFE7B0E723
:102510000A98059B07996A4611604021002201F044
:1025200095F8002804D0FFE703208DF82F0011E074
:102530000A98202180F83910FFE70A98002180F8D6
:102540003810FFE700208DF82F0003E002208DF8FF
:102550002F00FFE79DF82F000CB0B0BD82B0014600
:102560000190009102B07047FFE7FEE780B596B09A
:1025700000201590149013901290FFE741F218007C
:10258000C4F20200016841F010010160006800F02F
:102590001000119011980D90FFE7FFE741F218002D
:1025A000C4F20200016841F020010160006800F0FF
:1025B0002000109010980C90FFE7FFE741F2180000
:1025C000C4F20200016841F004010160006800F0FB
:1025D00004000F900F980B90FFE7FFE741F21800FF
:1025E000C4F20200016841F008010160006800F0D7
:1025F00008000E900E980A90FFE741F20000C4F226
:1026000001004FF400510022099008910792FEF753
:1026100027FC40F60000C4F20100F021069005916D
:10262000079AFEF71DFC40F60040C4F201004FF48B
:10263000407104900391079AFEF712FC08981290DB
:1026400001211391079A14924FF0020ECDF854E035
:1026500012AB0998029119460193CDF800E0FEF7FC
:1026600047FA0598129002991391079A1492009BC9
:10267000159306980199FEF73BFA039812901121E1
:10268000139107991491009A159204980199FEF7F5
:102690002FFA16B080BD000080B540F60400C2F2EB
:1026A000000043F60001C4F2010101604FF4E13182
:1026B000416000218160C16001610C224261816141
:1026C000C161FFF74BFD002803D0FFE7FEF70AF9D1
:1026D000FFE780BDFFE7FEE7FFE7FEE780B58BB0D1
:1026E00013468C4686460A90099108920A9800F093
:1026F000070007900798C0F1070005280493CDF85C
:102700000CC0CDF808E003D3FFE70420019004E0FB
:102710000798C0F107000190FFE70198069007981D
:102720000430062803D8FFE70020009003E0079854
:1027300003380090FFE70098059009980699012258
:1027400002FA01F10139084005998840089B02FA14
:1027500001F10139194008430BB080BD81B0002060
:102760008DF80200FFE79DF80200072823DCFFE751
:1027700000208DF80300FFE79DF803007F2813DC9D
:10278000FFE79DF8020040F21801C2F2000101EBE0
:10279000C0109DF8031000224254FFE79DF803008B
:1027A00001308DF80300E7E7FFE79DF802000130F4
:1027B0008DF80200D7E701B070470000B0B586B0D1
:1027C0009C4696460C4605468DF817008DF8161067
:1027D0008DF815208DF814309DF817008028CDF85D
:1027E0000CC0CDF808E00194009501DBFFE764E040
:1027F0009DF81600402801DBFFE75EE09DF817001A
:102800009DF815100844812807DBFFE79DF81700A5
:10281000C0F180008DF81500FFE79DF816009DF8C7
:1028200014100844412807DBFFE79DF81600C0F1AB
:1028300040008DF81400FFE79DF816008DF8120097
:10284000FFE79DF812009DF816109DF81420114422
:10285000884232DAFFE79DF817008DF81300FFE792
:102860009DF813009DF817109DF81520114488421B
:102870001CDAFFE79DF8120000F00701012202FABE
:1028800001F100F0F80040F21802C2F2000202EB7F
:1028900000109DF81320835C23EA01018154FFE7B7
:1028A0009DF8130001308DF81300D9E7FFE79DF87C
:1028B000120001308DF81200C3E706B0B0BD000071
:1028C00080B584B03220FEF7EBF80120019000F0D3
:1028D00031FB019800F042FB04B080BD80B582B0AE
:1028E00001468DF8070000208DF806000091FFE7F3
:1028F0009DF8060007281CDCFFE79DF807009DF8FF
:102900000610802222FA01F10840002818BF012099
:1029100000F024FB4FF0010000F00CFB4FF0000032
:1029200000F008FBFFE79DF8060001308DF8060077
:10293000DEE7012000F0FEFA002000F0FBFA02B012
:1029400080BD000080B582B00120019000F006FB40
:10295000019800F0EFFA0020009000F0FFFA0098D4
:1029600000F0E8FA02B080BD80B582B0002000F02F
:10297000F5FA0120019000F0DDFA019800F0EEFA7E
:1029800002B080BD80B5FFF79BFFAE2000F0FAFAE1
:10299000D52000F0F7FA802000F0F4FAA82000F02B
:1029A000F1FA3F2000F0EEFAD32000F0EBFA00201D
:1029B00000F0E8FA402000F0E5FAA12000F0E2FA89
:1029C000C82000F0DFFADA2000F0DCFA122000F074
:1029D000D9FA812000F0D6FACF2000F0D3FAD9201E
:1029E00000F0D0FAF12000F0CDFADB2000F0CAFAB6
:1029F000302000F0C7FAA42000F0C4FAA62000F0AE
:102A0000C1FA8D2000F0BEFA142000F0BBFAAF200E
:102A100000F0B8FA80BD000085B00A460346049075
:102A200003910120029001920093FFE70398411E59
:102A30000391002805D0FFE70498029948430290CB
:102A4000F4E7029805B0704780B584B00A460346A3
:102A50008DF80F008DF80E109DF80F0040F0B000BB
:102A60000292019300F08EFA9DF80E00102141EAC7
:102A7000101000F087FA9DF80E0000F00F0000F033
:102A800081FA04B080BD0000B0B588B09C4696467F
:102A90000C4605468DF81F008DF81E108DF81D2080
:102AA0008DF81C309DF81C000828CDF818C0CDF812
:102AB00014E00494039518D1FFE79DF81D0046F239
:102AC0008811C0F6000101EB0010A0F500709DF820
:102AD0001E109DF81F206B461860082010230290DE
:102AE0001046029A00F0B0F81EE09DF81C0006287F
:102AF00019D1FFE79DF81D0000EB400045F64E712F
:102B0000C0F6000101EB4000C0389DF81E109DF892
:102B10001F206B4618600620082301901046019A7A
:102B200000F092F8FFE7FFE708B0B0BD80B58AB0CB
:102B300013468C4686468DF827008DF8261008929D
:102B400000208DF81F008DF81C00ADF81A008DF8DC
:102B50001D000593CDF810C0CDF80CE0FFE70898F4
:102B60009DF81D10405C00286BD0FFE708989DF889
:102B70001D10405C9DF81F100DF11A0250549DF875
:102B80001F0001308DF81F009DF81F00022851DB47
:102B9000FFE700208DF81F008DF81E00FFE79DF86D
:102BA0001E0045F67A31C0F60001232200FB021018
:102BB00046F67C01C0F60001FDF7F6FA002818D0B1
:102BC000FFE79DF81E0045F67A31C0F6000123228A
:102BD00000FB02100DF11A01FDF7E6FA002801D101
:102BE000FFE706E0FFE79DF81E0001308DF81E00AC
:102BF000D5E79DF827009DF81D100131F02202EA6B
:102C0000C101084410389DF81E1045F67A32C0F60E
:102C10000002232301FB032103319DF826206B468C
:102C20001960C0B2102102911146029A029B00F075
:102C30000BF8FFE7FFE79DF81D0001308DF81D0040
:102C40008DE70AB080BD000070B588B0DDF830C0F7
:102C50009E4614460D4606468DF81F008DF81E1040
:102C60008DF81D208DF81C309DF81F008028CDF8B0
:102C700014E0049403950296CDF804C001DBFFE74D
:102C800099E09DF81E00402801DBFFE793E09DF8E6
:102C90001C309DF81D209DF81E109DF81F00FFF7A9
:102CA0008DFD00208DF81A00FFE79DF81A009DF8B1
:102CB0001C100139CA1701EB5271012202EBE1012C
:102CC000884278DAFFE700208DF81B00FFE79DF8C7
:102CD0001B009DF81D10884266DAFFE79DF81F0073
:102CE0009DF81B100844802801DBFFE75CE09DF89D
:102CF0001E009DF81A1001EBD000082801DBFFE749
:102D000059E00C989DF81A109DF81D209DF81B3075
:102D100001FB0232805C9DF81E2002F0070C00FAD5
:102D20000CF001EBD20140F21802C2F2000202EBF9
:102D3000C1119DF81F201A448B5C184388549DF8DC
:102D40001E009DF81A1001EBD0000130082801DBAD
:102D5000FFE723E00C989DF81A109DF81D209DF8C0
:102D60001B3001FB0232805C9DF81E2002F0070C34
:102D7000CCF1080C20FA0CF001EBD20140F2180261
:102D8000C2F2000202EBC1119DF81F201A44114447
:102D900091F88020104381F88000FFE79DF81B0028
:102DA00001308DF81B0092E7FFE79DF81A00013013
:102DB0008DF81A0079E708B070BD000070B58CB0CE
:102DC000DDF840C09E4614460D4606468DF82F009D
:102DD0008DF82E100A928DF827308DF826C000202D
:102DE0008DF82500CDF820E0079406950596FFE7BD
:102DF0009DF825009DF82710884238DAFFE79DF8F6
:102E00002F009DF825109DF8262001FB02000A9A4C
:102E10009DF82730591A01399DF82E304FF00A0CD1
:102E20000490604603920293FFF7F6FD0399B1FB0D
:102E3000F0F04CF6CD41CCF6CC41A0FB0112D2080B
:102E400002EB8202A0EB420040F030020498C0B2D4
:102E50009DF82630DDF808C001916146FFF714FEA9
:102E6000FFE79DF8250001308DF82500C0E70CB084
:102E700070BD0000B0B58AB09C4696460C4605462B
:102E80008DF827008DF8261008928DF81F3000204D
:102E90008DF81E00CDF818C0CDF814E00494039509
:102EA000FFE708989DF81E10405C00281CD0FFE743
:102EB0009DF827009DF81E109DF81F2001FB0200C1
:102EC000089BC0B2595C9DF8263002911946029BBE
:102ED00001921A46019BFFF7D7FDFFE79DF81E0000
:102EE00001308DF81E00DCE70AB0B0BD80B582B0BD
:102EF00000208DF80700FFE79DF80700072817DC82
:102F0000FFE79DF807000021FFF79EFD9DF80700F1
:102F100040F21801C2F2000101EBC010802100F064
:102F200047F8FFE79DF8070001308DF80700E3E759
:102F300002B080BD80B582B001468DF807009DF8D3
:102F4000072040F60040C4F201004FF48073009166
:102F50001946FDF785FF02B080BD000080B582B044
:102F600001468DF807009DF8072040F60040C4F2A6
:102F700001004FF4007300911946FDF771FF02B094
:102F800080BD000080B582B001468DF80700009139
:102F9000FFF7D8FC7820FFF7A1FC0020FFF79EFC8C
:102FA0009DF80700FFF79AFCFFF7DEFC02B080BD3A
:102FB00080B584B00A46034603908DF80B10019249
:102FC0000093FFF7BFFC7820FFF788FC4020FFF755
:102FD00085FC00208DF80A00FFE79DF80A009DF8A7
:102FE0000B1088420DDAFFE703989DF80A10405C49
:102FF000FFF774FCFFE79DF80A0001308DF80A0026
:10300000EBE7FFF7B1FC04B080BD0000000000005A
:10301000EFF30980BFF36F8F0D4B1A6820E9F00FB3
:1030200010602DE908404FF0500080F3118801F046
:10303000DBFD4FF0000080F31188BDE808401968FF
:103040000868B0E8F00F80F30988BFF36F8F70470E
:103050004408002084B001460390039840F208021F
:10306000C2F200021268D20844F6D353C1F26203DE
:10307000A2FB03239B095843029001910092FFE7B2
:1030800000BFFFE70298411E02910028F8D1FFE738
:1030900004B0704780B540F60000C4F20100402142
:1030A0000022FDF7DDFE80BD0000000000000000F2
:1030B000074B19680868B0E8F00F80F30988BFF380
:1030C0006F8F4FF0000080F311884EF00D0E7047A7
:1030D0004408002080B582B04FF0500080F3118882
:1030E000BFF36F8FBFF34F8F009001F0B3FE002846
:1030F00008D0FFE74EF60450CEF200004FF08051AA
:103100000160FFE700200190019880F3118802B070
:1031100080BD000080B592B008A828210290FDF77C
:103120001AF8002007900690059004900390012162
:1031300008914FF4803ECDF824E00A900C910220D3
:103140000F90CDF840E04FF4E01011900298FEF798
:10315000B9F9002803D0FFE7FDF7C4FBFFE70F2014
:10316000039002200490002105914FF480620692A2
:10317000079103A9019008460199FDF7ABFF0028CC
:1031800003D0FFE7FDF7AEFBFFE712B080BD000004
:1031900041F20000C4F20200016841F00101016047
:1031A00041F20401C4F202010A680023CFF6FF03D2
:1031B0001A400A6002684FF6FF73CFF6F6631A40B2
:1031C0000260026822F480220260086820F4FE0097
:1031D000086041F20800C4F202004FF41F010160D0
:1031E0004EF60850CEF200004FF0006101607047CB
:1031F00080B540F2C470C2F20000FEF72DFD80BD24
:1032000085B00A4603460490039104980068029032
:10321000049842F60041C4F20101884201920093F1
:1032200015D0FFE70498B0F1804F10D0FFE7049865
:1032300040F20041C4F20001884208D0FFE7049840
:1032400040F60001C4F2000188420AD1FFE702986B
:1032500020F07000029003984068029908430290A1
:10326000FFE7049842F60041C4F20101884215D0FC
:10327000FFE70498B0F1804F10D0FFE7049840F2C8
:103280000041C4F20001884208D0FFE7049840F6EC
:103290000001C4F2000188420AD1FFE7029820F43D
:1032A000407002900398C068029908430290FFE7BB
:1032B000029820F08000039949690843029002981F
:1032C00004990860039880680499C86203980068AC
:1032D00004998862049842F60041C4F201018842D0
:1032E00005D1FFE70398006904990863FFE7049894
:1032F0000121416105B0704780B584B0014603905B
:103300000398406A029002980022C2850298C28403
:1033100002980191FEF70CFE04B080BD82B0014618
:10332000019001980068C26822F49072C26001980E
:103330000068426922F0010242610198202280F86F
:103340003A20009102B0704780B582B001460190EA
:1033500001980068C26822F04002C26001982022F1
:1033600080F8392001980091FFF7F8F8002002B0AA
:1033700080BD000080B584B001460290029890F8AC
:103380003A00222800916AD1FFE702988068B0F5E0
:10339000805F20D1FFE70298806A0190029800695F
:1033A00000280CD1FFE70298006840686FF35F20A7
:1033B000019908800298816A023181620AE00298CC
:1033C00000684068C0B2019908800298816A0131A2
:1033D0008162FFE719E002980069002809D1FFE740
:1033E00002980068406802998A6A531C8B621070C8
:1033F0000AE002980068406800F07F0002998A6A3B
:10340000531C8B621070FFE7FFE70298C18D0139F2
:10341000C1854FF6FF7001421DD1FFE70298006899
:10342000C16821F02001C16002980068C16821F4E0
:103430008071C16002980068416921F00101416119
:103440000298202180F83A100298FEF79FFF002092
:103450008DF80F0007E000208DF80F0003E0022038
:103460008DF80F00FFE79DF80F0004B080BD00004D
:1034700080B588B00146079007980068006920F47D
:103480004050079A1368D268104318610798826801
:10349000036940691A431043069007980068C068A2
:1034A00041F20C629043069A1043079A1268D0606A
:1034B00007980068406920F44070079A1368926981
:1034C000104358610798006843F60002C4F20102F5
:1034D0009042049131D1FFE7FDF780FF05900598F8
:1034E0004FF0190E00FB0EF0DDF81CE0DEF80010C6
:1034F000DEF804E04FEA8E0EB0FBFEF048F21F5EED
:10350000C5F2EB1EA0FB0E235B094FF0640C03FB1E
:103510001C004FF0320C0CEB0010A0FB0E0C4FF017
:10352000F00E0EEA5C1E0EEB0313CCF3431C43EAD1
:103530000C038B600392029030E0FDF73BFF059097
:1035400005984FF0190E00FB0EF0DDF81CE0DEF8D8
:103550000010DEF804E04FEA8E0EB0FBFEF048F2F9
:103560001F5EC5F2EB1EA0FB0E235B094FF0640C3F
:1035700003FB1C004FF0320C0CEB0010A0FB0E0CF8
:103580004FF0F00E0EEA5C1E0EEB0313CCF3431C5F
:1035900043EA0C038B6001920090FFE708B080BD06
:1035A00084B001460290029890F8390021280091D9
:1035B00043D1FFE702988068B0F5805F1AD1FFE73A
:1035C0000298006A0190019800886FF35F200299C9
:1035D0000968486002980069002805D1FFE7029851
:1035E000016A0231016204E00298016A013101625C
:1035F000FFE708E00298016A4A1C02620878029913
:1036000009684860FFE70298C18C0139C1844FF610
:10361000FF7001420DD1FFE702980068C16821F0F8
:103620008001C16002980068C16841F04001C1603A
:10363000FFE700208DF80F0003E002208DF80F0057
:10364000FFE79DF80F0004B07047000070B58AB026
:10365000DDF838C09E4614460D4606460890079190
:103660008DF81B200593CDF810E003940295019688
:10367000CDF800C0FFE70898006800680799084087
:10368000401AB0FA80F040099DF81B10884233D1EF
:10369000FFE70E98013000282DD0FFE70E98002894
:1036A0000BD0FFE7FDF7FEFBDDF814E0A0EB0E000A
:1036B000DDF838E070451DD9FFE708980068C1685B
:1036C00021F4D071C16008980068416921F00101BE
:1036D00041610898202180F83910089880F83A1044
:1036E000FFE70898002180F83810FFE703208DF8E5
:1036F000270005E0FFE7BEE700208DF82700FFE781
:103700009DF827000AB070BD80B540F60400C2F2F3
:103710000000FEF713FC80BDFFE7FEE780B540F632
:103720000000C4F2010020210022FDF799FB80BDBA
:1037300080B540F60000C4F2010020210122FDF70F
:103740008FFB80BD82B001468DF807009DF9070010
:10375000002800910FDBFFE79DF9070000F01F0133
:10376000012202FA01F140094EF20012CEF20002EB
:1037700042F82010FFE702B0704700004EF60C50F0
:10378000CEF200000068C0F30220704784B00A4601
:1037900003468DF80F0002919DF90F000028019259
:1037A00000930ADBFFE7029800019DF90F104EF22B
:1037B0000042CEF2000288540BE0029800019DF80E
:1037C0000F1001F00F014EF61452CEF20002885491
:1037D000FFE704B07047000084B0014603900398EF
:1037E00000F0070001904EF60C50CEF20000026887
:1037F0000292029A4FF6FF031A400292029A019B2C
:1038000042EA03220023C0F2FA531A430292029AB8
:103810000260009104B0704780B588B0684600210E
:1038200041600222026044F25160C0F6000046F698
:103830003F02C0F600024FF48073079111461A460A
:10384000DDF81CC00693634601F0AAFA6946079AA0
:103850004A6001230B6043F6E101C0F6000146F621
:10386000360CC0F6000C059008466146069ADDF855
:103870001CC00493634601F093FA6946079A4A60B4
:10388000049B0B6043F62511C0F6000146F6350C8B
:10389000C0F6000C039008466146069A079B01F0AB
:1038A0007FFA029001F03EF908B080BD80B586B085
:1038B0000A4603460590049140F60400C2F2000057
:1038C00005A94FF0010C6FF07F4E03926246029300
:1038D0007346FEF783FD05990190084606B080BD4A
:1038E00080B5FFE741F20000C4F201004FF400513F
:1038F000FDF79AFA4FF4FA7001F0D4F8F2E70000FD
:1039000080B582B000200190FDF7E0FA0090FFF74B
:1039100001FCFEF72BFEFEF7BFFEFFF77DFFFFE782
:10392000FEE7000080B598B04FF0FF301790FFF72A
:1039300029F8FEF713FF46F65D02C0F600022020CC
:103940004FF0000E7146CDF84CE0FFF7EFF846F669
:103950007602C0F6000210201399129008461299C0
:10396000FFF7E4F846F66602C0F600024620129918
:10397000FFF7DCF846F66D02C0F60002212113982D
:10398000FFF7D4F868460821016028200323129A23
:1039900011911146139AFFF711FA40F20C00C2F28E
:1039A000000002786846119901606E200223129986
:1039B000FFF704FAFFF79AFAFFE740F21840C2F265
:1039C00000000078002800F03081FFE740F2184046
:1039D000C2F200000021017040F21940C2F2000062
:1039E0001690169846F65A02C0F60002109111463B
:1039F000FCF7BCFB15904FF6FF70ADF85200109825
:103A0000ADF850001599002948D0FFE7159802300D
:103A1000FCF7D8FBADF8500015984FF0000E80F879
:103A200000E01698FCF766FFADF85200BDF95200B1
:103A30000130002806D1FFE71698FCF709FFADF822
:103A40005200FFE7BDF952000130002825D0FFE702
:103A5000BDF85000BDF9521001EBC10140F24042E7
:103A6000C2F2000202EB41010A8A1044088246F6C3
:103A70000402C0F600020020302108230F900E91AE
:103A80000D93FFF7F7F946F64902C0F600020F98CA
:103A90000E990D9BFFF7EEF9FFE77DE01698FCF716
:103AA00029FFADF85200BDF952000130002806D1BF
:103AB000FFE71698FCF7CCFEADF85200FFE7BDF922
:103AC000520000EBC00040F24041C2F2000101EBA5
:103AD0004000008A01283CDBFFE740F20C00C2F204
:103AE00000000078012808DBFFE740F20C00C2F27A
:103AF0000000017801390170FFE7BDF9520000EBC9
:103B0000C00040F24041C2F2000101EB4000018AD6
:103B10000A390182FCF728FFFFF7BCFAFFF7FEFD28
:103B200046F60402C0F60002002030214FF0080ED5
:103B30000C900B917346CDF828E0FFF79BF946F601
:103B40002502C0F600020C980B990A9BFFF792F928
:103B500021E0FCF7FFFEFFF79DFAFFF7E9FD46F6CF
:103B60000402C0F600024FF0000E30200821099038
:103B70007046099B08911946089BCDF81CE0FFF799
:103B800079F946F61502C0F6000207980999089BD4
:103B9000FFF770F9FFE7FFE7BDF952000130002899
:103BA00042D0FFE7BDF9520000EBC00040F24041B7
:103BB000C2F2000101EB4000028A6846082303605C
:103BC00028204FF0120C4FF0030E0691614605932A
:103BD0007346CDF810C0FFF7F1F840F20C00C2F2C6
:103BE000000002786846059901606E20022304995E
:103BF000FFF7E4F846F60402C0F600023C2021215B
:103C000003900291059BFFF735F9BDF9520000EBD7
:103C1000C000069901EB400203980299059BFFF74B
:103C200029F9FFF763F9FFE7FFE70A2000F03AFF01
:103C3000C3E6000080B586B00A46034605900491AD
:103C400041F61060C2F200000068029040F64400A5
:103C5000C2F20000006804300192009300F08EFD73
:103C6000002812D1FFE740F64400C2F200000068CD
:103C7000C06A012101FA00F041F68451C2F200014C
:103C80000A6822EA0000086000E0FFE705980130BA
:103C9000002811D1FFE7049800280DD0FFE740F677
:103CA0004400C2F200000068011D41F6E850C2F273
:103CB000000000F0E7FD3DE00298059908440390FC
:103CC000039840F64401C2F2000109684860039875
:103CD000029988420ED2FFE740F65000C2F200007F
:103CE000006840F64401C2F200010968043100F0A6
:103CF0008FFD1EE040F64800C2F20000006840F66A
:103D00004401C2F200010968043100F081FD03980A
:103D100041F6C051C2F200010968884207D2FFE7AC
:103D2000039841F6C051C2F20001086000E0FFE7CD
:103D3000FFE7FFE706B080BD80B584B00146039081
:103D4000029100F0C1FD41F67050C2F2000001681E
:103D50000131016040F64400C2F200000068002812
:103D600013D1FFE7039840F64401C2F20001086056
:103D700041F67050C2F200000068012803D1FFE74D
:103D800000F0D4F900E0FFE71DE041F6DC50C2F29C
:103D900000000068002814D1FFE740F64400C2F29A
:103DA00000000068C06A0399C96A884207D8FFE723
:103DB000039840F64401C2F20001086000E0FFE70A
:103DC00000E0FFE7FFE741F68050C2F20000016823
:103DD000013101600068039948640398C06A0121B9
:103DE00001FA00F041F68451C2F200010A68104362
:103DF00008600398C16A01EB810140F65402C2F2E7
:103E0000000202EB8101043001900846019900F0A4
:103E100039FD00F089FD41F6DC50C2F20000006877
:103E2000002819D0FFE740F64400C2F20000006805
:103E3000C06A0399C96A88420CD2FFE74EF6045063
:103E4000CEF200004FF080510160BFF34F8FBFF3FF
:103E50006F8F00E0FFE700E0FFE704B080BD0000E7
:103E600080B582B0FFE741F67450C2F200000068EE
:103E700000282CD0FFE700F027FD41F6FC5EC2F2DF
:103E8000000EDEF80CE0DEF80CE0CDF804E0DDF822
:103E900004E00EF1040000F071FC41F6705EC2F225
:103EA000000EDEF800100139CEF8001041F6745112
:103EB000C2F20001D1F800E0AEF1010EC1F800E05D
:103EC000009000F031FD019800F004F8CBE702B05B
:103ED00080BD000080B582B0014601900198006B62
:103EE000009100F04DFD019800F04AFD02B080BD48
:103EF00084B04FF4A050009040F66610C2F200006B
:103F000001909DF804004007002811D0FFE70198B8
:103F100007300190019820F007000190019840F6C9
:103F20006611C2F20001401A0099081A0090FFE7DA
:103F300001980290029841F6E051C2F20001086037
:103F4000002048600299009A1144019101990839B2
:103F50000191019921F007010191019940F64C026C
:103F6000C2F200021160116848601168086002988E
:103F7000039001980399401A4860106803990860FB
:103F80000398406841F6BC51C2F2000108600398F2
:103F9000406841F6B451C2F20001086041F6885011
:103FA000C2F200004FF00041016004B07047000011
:103FB00080B582B0014601900091FFE7FFF750FF06
:103FC00040F6540EC2F2000EDEF800E0BEF1020F21
:103FD0000CD3FFE74EF60450CEF200004FF08051B4
:103FE0000160BFF34F8FBFF36F8F00E0FFE7E5E79E
:103FF0002DE9F04391B0DDF86CC0DDF868E0199C64
:10400000189D1E4617468846814610900F910E92C5
:104010000D931A98006B0E998900A5220A960997AC
:10402000CDF82080CDF81C90CDF818C0CDF814E064
:1040300004940395FCF788F81A98006B0E9900EB2E
:10404000810004380C900C9820F007000C909DF82B
:104050003000400700280ED0FFE746F27870C0F627
:10406000000046F28D71C0F6000140F25D3201F0B1
:10407000AFF80290FFE700200B90FFE70B980F28A6
:1040800014D8FFE70F980B99405C1A9A114481F8F5
:1040900034000F980B99405C002801D1FFE705E040
:1040A000FFE7FFE70B9801300B90E7E71A98002134
:1040B00080F843101898072803D3FFE706201890CC
:1040C00000E0FFE718981A99C86218981A99C8640E
:1040D0001A98002101651A980430019100F08EFBB6
:1040E0001A98183000F08AFB1A9800611898C0F1ED
:1040F00007001A9988611A9840621A9801994165D7
:104100001A9880F858100C9810990D9A00F022FA1D
:104110001A9908601998002804D0FFE71A9819998D
:10412000086000E0FFE711B0BDE8F08380B584B01F
:1041300000200390FFE70398062810D8FFE70398B4
:1041400000EB800040F65401C2F2000101EB800058
:1041500000F03AFBFFE7039801300390EBE741F6EC
:104160008C50C2F20000029000F02EFB41F6A050ED
:10417000C2F20000019000F027FB41F6C850C2F2E5
:10418000000000F021FB41F6FC50C2F2000000F0FC
:104190001BFB41F6E850C2F2000000F015FB40F6B0
:1041A0004800C2F20000DDF808E0C0F800E040F688
:1041B0005000C2F200000199016004B080BD00000F
:1041C00084B00146039041F6E050C2F20000029034
:1041D0000091FFE7029800680399884205D2FFE743
:1041E000FFE7029800680290F4E7029801900198B6
:1041F0000299496808440399884209D1FFE7039866
:10420000406802994A68104448600298039000E0B0
:10421000FFE70398019001980399496808440299BF
:104220000968884220D1FFE70298006840F64C01F7
:10423000C2F20001096888420DD0FFE702980068C9
:10424000406803994A681044486002980068006812
:104250000399086007E040F64C00C2F200000068D5
:1042600003990860FFE704E002980068039908607A
:10427000FFE702980399884204D0FFE70398029968
:10428000086000E0FFE704B07047000006480068DF
:10429000006880F3088862B661B6BFF34F8FBFF342
:1042A0006F8F00DF00BF00BF08ED00E081B040F677
:1042B0004800C2F2000000680068002808D1FFE74B
:1042C00041F6C050C2F200004FF0FF3101600FE034
:1042D00040F64800C2F200000068C068C068009064
:1042E0000098406841F6C051C2F200010860FFE743
:1042F00001B0704780B584B00020029040F21400F5
:10430000C2F200000068013000280DD0FFE746F23D
:104310007870C0F6000046F2D571C0F60001CA22DE
:1043200000F056FF0190FFE74FF0500080F3118836
:10433000BFF36F8FBFF34F8F0390FFE70298002802
:1043400001D1FFE7FAE704B080BD000080B58CB072
:1043500001460B9000200790069100F03DFC40F6CE
:104360004C00C2F200000068002803D1FFE7FFF70D
:10437000BFFD00E0FFE70B9841F68851C2F2000153
:104380000968084240F0C980FFE70B98002826D052
:10439000FFE70B9808300B909DF82C004007002891
:1043A0001BD0FFE70B9800F00701C1F1080108449A
:1043B0000B909DF82C00400700280DD0FFE746F237
:1043C0007870C0F6000046F2A871C0F60001952290
:1043D00000F0FEFE0590FFE700E0FFE700E0FFE7EA
:1043E0000B98002800F09780FFE70B9841F6B45136
:1043F000C2F200010968884200F28D80FFE741F6B1
:10440000E050C2F20000099000680A90FFE70A98A5
:1044100040680B9900228842049207D2FFE70A986D
:104420000068002818BF01200490FFE70498C00727
:10443000002806D0FFE70A9809900A9800680A90B9
:10444000E5E70A9840F64C01C2F20001096888428B
:104450005FD0FFE709980068083007900A98006865
:10446000099908600A9840680B99401A112824D3CA
:10447000FFE70A980B99084408909DF82000400730
:1044800000280DD0FFE746F27870C0F6000046F233
:10449000A871C0F60001C22200F09AFE0390FFE767
:1044A0000A9840680B99401A089948600B980A9935
:1044B00048600898FFF784FE00E0FFE70A9840682C
:1044C00041F6B451C2F200010A68101A0860086887
:1044D00041F6BC51C2F20001096888420BD2FFE7E5
:1044E00041F6B450C2F20000006841F6BC51C2F27D
:1044F0000001086000E0FFE741F68850C2F20000CA
:1045000000680A994A68104348600A9800210160CF
:1045100000E0FFE700E0FFE700E0FFE700F086FDD6
:104520009DF81CE04FEA4E7EBEF1000F02900ED0C7
:10453000FFE746F27870C0F6000046F2A871C0F6B8
:1045400000014FF4817200F043FE0190FFE70798ED
:104550000CB080BD80B586B013468C46864605906B
:104560000491039205980438059005984FF08071E6
:104570000160059804380590049820F00100059921
:104580000860059804380590059844F2F521C0F6B6
:10459000000101600598143805900398059908609A
:1045A00005982038059005980293CDF804C0CDF801
:1045B00000E006B080BD000085B00A4603460390C7
:1045C00002910398B0F88010B0F882008142019205
:1045D000009303D1FFE70020049010E00398B0F8A7
:1045E0008210405C029908700398B0F88210013183
:1045F00001F07F01A0F8821001200490FFE70498E9
:1046000005B0704784B00A46034603908DF80B103E
:104610000398B0F88000013000F07F00ADF808008A
:10462000BDF808000399B1F8821088420192009306
:104630000CD0FFE79DF80B000399B1F88020885457
:10464000BDF808000399A1F88000FFE704B07047A7
:1046500080B592B00146119000208DF843008DF88E
:10466000210040F60400C2F2000040F6E002C2F26F
:1046700000020123079111461A46FDF71FFE06901E
:10468000FFE740F6E200C2F200000DF14201FFF741
:1046900093FF00286ED0FFE79DF8430001460028F5
:1046A000059108D0FFE7059801280ED0FFE705988F
:1046B000022820D05DE09DF84200232804D1FFE7C6
:1046C00001208DF84300FFE753E09DF842004028A9
:1046D00007D1FFE700208DF8210002208DF843006C
:1046E00008E09DF842002338B0FA80F040098DF8C8
:1046F0004300FFE73DE09DF842002A282DD1FFE767
:104700009DF8212040F60400C2F200000DF12201C4
:1047100064230491FDF762FE9DF821100022049BA2
:104720005A549DF82110013140F2194EC2F2000E88
:104730000390704602911946DDF808E00192724636
:10474000FBF7F0FC40F21841C2F2000101220A70AE
:1047500001998DF8431000900AE09DF842009DF801
:1047600021104A1C8DF821200DF122025054FFE740
:10477000FFE7FFE7012000F095F982E783B00146EB
:1047800002900298006901900298426880689060E7
:10479000029842688068426001984068029A90429C
:1047A000009105D1FFE7029880680199486000E018
:1047B000FFE7029800210161019801680139016059
:1047C0000198006803B0704782B0014601900198DB
:1047D00000F10802426001984FF0FF3282600198B8
:1047E00000F10802C260019800F10802026101981C
:1047F00000220260009102B07047000082B00146C2
:104800000190019800220261009102B070470000FF
:1048100086B00A4603460590049104980068029009
:104820000298013000280192009304D1FFE7059817
:104830000069039010E0059808300390FFE70398A3
:10484000406800680299884205D8FFE7FFE70398AF
:1048500040680390F3E7FFE70398406804994860D5
:1048600004984168886003980499886004980399C3
:104870004860059804990861059801680131016054
:1048800006B0704785B00A46034604900391049829
:1048900040680290029803994860029880680399E2
:1048A0008860039802998968486003980299886033
:1048B000049803990861049801680131016001922C
:1048C000009305B07047000080B582B04FF05000F3
:1048D00080F31188BFF36F8FBFF34F8F019040F2C9
:1048E0001400C2F200000168013101600068012873
:1048F00018D1FFE74EF60450CEF20000006810F029
:10490000FF0F0ED0FFE746F27870C0F6000046F2C7
:10491000D571C0F6000140F2751200F059FC00900C
:10492000FFE7FFE702B080BD80B582B040F214001F
:10493000C2F20000006800280ED1FFE746F278704E
:10494000C0F6000046F2D571C0F600014FF4BE7209
:1049500000F03EFC0090FFE740F21400C2F20000BD
:104960000168013901600068002806D1FFE70020D6
:104970000190019880F31188FFE702B080BD00002C
:1049800080B588B0014607900798069007980028E0
:1049900004915FD0FFE706980838069006980590C6
:1049A0000598406841F68851C2F200010968084242
:1049B0000ED1FFE746F27870C0F6000046F2A8710B
:1049C000C0F600014FF48B7200F002FC0390FFE789
:1049D0000598006800280ED0FFE746F27870C0F610
:1049E000000046F2A871C0F6000140F2171200F074
:1049F000EFFB0290FFE70598406841F68851C2F24C
:104A000000010968084223D0FFE7059800680028E4
:104A10001CD1FFE741F68850C2F2000000680599FA
:104A20004A6822EA0000486000F0D6F8059840681D
:104A300041F6B451C2F200010A68104408600598BA
:104A4000FFF7BEFB00F0F2FA019000E0FFE700E0A4
:104A5000FFE7FFE708B080BD81B04EF21000CEF254
:104A60000000002101604EF21802CEF20002116037
:104A700040F20801C2F20001096844F6D352C1F2C3
:104A80006202A1FB02124FF0FF3303EB92124EF2CF
:104A90001403CEF200031A6007220260009101B0F5
:104AA0007047000080B584B001460390002002905A
:104AB00003980028019120D0FFE741F67C50C2F214
:104AC0000000006800280ED0FFE746F27870C0F6BC
:104AD000000046F28D71C0F6000140F2095200F06C
:104AE00077FB0090FFE700F077F803980021FFF7CD
:104AF000A1F800F09BFA029000E0FFE7029800287E
:104B00000CD1FFE74EF60450CEF200004FF080517A
:104B10000160BFF34F8FBFF36F8F00E0FFE704B07A
:104B200080BD000080B586B041F6B850C2F20000EA
:104B3000694648600020086043F6B171C0F6000184
:104B400046F28872C0F600028023039008461146A0
:104B50001A46039B00F024F904900498012824D1FC
:104B6000FFE74FF0500080F31188BFF36F8FBFF362
:104B70004F8F059041F6C050C2F200004FF0FF3158
:104B8000016041F6DC50C2F200000121016041F6F3
:104B90001060C2F200000021016000F08BF80028D4
:104BA00001D0FFE700E0FFE713E0049801300028A0
:104BB0000ED1FFE746F27870C0F6000046F28D7124
:104BC000C0F6000140F2D67200F002FB0290FFE74F
:104BD000FFE706B080BD000041F67C50C2F2000045
:104BE000016801310160704780B586B041F67C50A4
:104BF000C2F200000068002807D0FFE741F6146009
:104C0000C2F200000121016051E041F61460C2F2DD
:104C100000000021016041F68450C2F200000068EB
:104C200005900598B0FA80F08DF813009DF81300F8
:104C3000C0F11F000390039800EB800040F6540180
:104C4000C2F2000151F8200000280ED1FFE746F221
:104C50007870C0F6000046F28D71C0F6000140F693
:104C60004A3200F0B5FA0190FFE7039800EB8000AC
:104C700040F65401C2F2000101EB8000029002985C
:104C8000416849684160029841680830814205D115
:104C9000FFE70298416849684160FFE70298406871
:104CA000C06840F64401C2F200010860FFE706B0A8
:104CB00080BD000080B586B04EF20040CEF200000C
:104CC000049001780591FF21017000788DF80F00A4
:104CD0009DF80F0000F0500041F66651C2F200014D
:104CE000087041F66850C2F2000007210160FFE73A
:104CF0009DF80F0010F0800F0DD0FFE741F66850CF
:104D0000C2F200000168013901609DF80F00400007
:104D10008DF80F00ECE741F66850C2F20000006821
:104D200003280ED0FFE746F27870C0F6000046F286
:104D3000D571C0F600014FF49B7200F049FA029061
:104D4000FFE741F66850C2F2000001680902016005
:104D5000016801F4E061016005984EF20041CEF275
:104D6000000108704EF62050CEF20000016841F4B8
:104D700070010160016841F070410160FFF76CFE55
:104D800040F21400C2F20000002101600191FFF71F
:104D90007DFAFFF729FFFFF7ADFA019806B080BD55
:104DA000F0B591B0DDF85CC0DDF858E01C46154662
:104DB0000E46074610900F91ADF83A200D93BDF8BE
:104DC0003A0080000994089507960697CDF814C01C
:104DD000CDF810E0FFF7BAFA0A900A98002811D02F
:104DE000FFE75C20FFF7B2FA0C900C98002804D083
:104DF000FFE70A980C99086303E00A98FFF7C0FDE3
:104E0000FFE702E000200C90FFE70C9800281AD082
:104E1000FFE710980F99BDF83A200D9BDDF858C0B8
:104E2000DDF85CE00C9C6D460026EE60AC60C5F8D9
:104E300004E0C5F800C0FFF7DBF80C98FEF77CFF34
:104E400001200B9003E04FF0FF300B90FFE70B9831
:104E500011B0F0BD80B58AB00020079041F67C50BB
:104E6000C2F200000068002840F0C980FFE741F668
:104E70001060C2F2000001680131069106990160DC
:104E8000069800282FD1FFE740F64800C2F2000044
:104E90000068006800280ED0FFE746F27870C0F680
:104EA000000046F28D71C0F6000140F62D2200F0A0
:104EB0008FF90490FFE740F64800C2F20000016855
:104EC000059140F65001C2F200010A68026005989F
:104ED000086041F6C450C2F200000168013101606F
:104EE000FFF7E4F900E0FFE7069841F6C051C2F28F
:104EF0000001096888426CD3FFE7FFE740F64800ED
:104F0000C2F2000000680068002808D1FFE741F6FF
:104F1000C050C2F200004FF0FF31016058E040F68F
:104F20004800C2F200000068C068C0680990099893
:104F30004068089006980899884207D2FFE70898C9
:104F400041F6C051C2F20001086041E0FFE7099854
:104F50000430FFF713FCDDF824E0DEF828E0BEF1B2
:104F6000000F039006D0FFE709981830FFF706FC02
:104F7000029000E0FFE70998C06A012101FA00F001
:104F800041F68451C2F200010A6810430860099892
:104F9000C16A01EB810140F65402C2F2000202EB49
:104FA00081010430019008460199FFF76BFC0998D4
:104FB000C06A40F64401C2F200010968C96A884229
:104FC00003D3FFE70120079000E0FFE7FFE795E745
:104FD000FFE740F64400C2F200000068C06A00EB40
:104FE000800040F65401C2F2000151F8200002286E
:104FF00003D3FFE70120079000E0FFE707E041F659
:105000007850C2F20000016801310160FFE741F60B
:105010001460C2F200000068002803D0FFE70120FE
:10502000079000E0FFE707980AB080BD80B586B022
:1050300000200590049041F67C50C2F20000006808
:1050400000280ED1FFE746F27870C0F6000046F265
:105050008D71C0F6000140F63A0200F0B9F80290F6
:10506000FFE7FFF731FC41F67C5EC2F2000EDEF88E
:1050700000000138CEF80000DEF80000002840F003
:10508000A180FFE741F67050C2F2000000680028DE
:1050900000F09780FFE7FFE741F6C850C2F200003A
:1050A0000068002846D0FFE741F6C850C2F2000071
:1050B000C068C068059005981830FFF75FFBDDF801
:1050C00014E00EF1040E01907046FFF757FBDDF877
:1050D00014E0DEF82CE0012101FA0EF141F6845EC5
:1050E000C2F2000EDEF800201143CEF80010059940
:1050F000CA6A02EB820240F6540EC2F2000E0EEBB8
:105100008202043100901046FFF7BCFB0598C06A8C
:1051100040F64401C2F200010968C96A884207D317
:10512000FFE741F61460C2F200000121016000E0D7
:10513000FFE7B1E70598002803D0FFE7FFF7B6F8CF
:10514000FFE741F67850C2F2000000680390039830
:1051500000281DD0FFE7FFE7FFF77CFE002807D0FF
:10516000FFE741F61460C2F200000121016000E097
:10517000FFE7039801380390FFE703980028EBD17D
:10518000FFE741F67850C2F200000021016000E024
:10519000FFE741F61460C2F20000006800280ED05C
:1051A000FFE7012004904EF60450CEF200004FF0CD
:1051B00080510160BFF34F8FBFF36F8F00E0FFE7B7
:1051C000FFE700E0FFE7FFF7AFFB049806B080BD04
:1051D0000FB4054B10B503A9044A029800F0DEF89D
:1051E00010BC5DF814FB0000AD3800080000002082
:1051F000004870470400002002E008C8121F08C1E0
:10520000002AFAD170477047002001E001C1121F47
:10521000002AFBD1704700002DE9FF5F82B000211A
:10522000DDE90430020DDDF840B0034318D044F648
:105230001050A2F2FF3242431514119801281FD0DA
:10524000A5EB0B00401C5FEA000A4FF000064E4F32
:10525000DFF83891B046504615D5CAF1000413E086
:10526000119801244AA3012801D16FEA0B01029889
:10527000119AC0E90031C0E9024206B0BDE8F09FD2
:10528000CBF10000DFE704460021404A491842EB19
:105290000450CDE9001012E0E00707D032463B464B
:1052A00040464946FBF742F88046894632463B462F
:1052B00010461946FBF73AF806460F466410002CD4
:1052C000EAD1DDE90401DDE90023BAF1000F06DAD5
:1052D000FBF72CF842464B46FBF728F805E0FBF7B6
:1052E00097F842464B46FBF793F804460E460022D9
:1052F000284BFBF721FA03D84FF0FF30014607E0B7
:105300000022254B20463146FAF769FFFBF7FCF9EE
:10531000102409E0002C0ADB0A220023FBF7FDF829
:10532000039B30321A55641E50EA0102F2D1641C0C
:10533000039AC4F111031444119A012A03D00122E3
:1053400008430DD10AE0084304D000204FF0110BB0
:10535000119072E7A3EB0B056D1E0DE05B4504DDBC
:105360004FF0000205F1010504E003DA4FF00002FE
:10537000A5F10105002AECD002981199C0E902318B
:10538000C0E9004579E70000000014400000F03F4C
:10539000300000000000F0430000E03F2DE9FF4F27
:1053A00095B09B468946064600250FE2252877D111
:1053B00000242746F84A0121059400E0044316F82A
:1053C000013F203B01FA03F01042F7D130782A2840
:1053D00011D06FF02F033078A0F13002092A16D8CF
:1053E000059A44F0020402EB820203EB42021044ED
:1053F000761C0590EFE759F8042B0592002A03DA92
:10540000504244F40054059044F00204761C307875
:105410002E2816D116F8010F44F004042A280DD0C6
:105420006FF02F023078A0F13003092B09D807EB79
:10543000870302EB4303C718761CF3E759F8047B94
:10544000761C30786C280FD006DC4C2817D06828E2
:105450000DD06A2814D104E0742810D07A280FD116
:105460000DE044F400140AE044F4801401E044F434
:1054700040147278824202D104F58014761C761CA6
:10548000307866280BD013DC582877D009DC002848
:1054900075D04528F6D04628F4D047281AD19DE18A
:1054A00018E0632835D0642879D0652812D195E1B9
:1054B000702873D008DC6728F1D069286FD06E2877
:1054C0000DD06F2806D1B5E073282CD0752875D083
:1054D000782874D05A46179990476D1C75E1C4F32B
:1054E0000250022809D003280DD0D9F80010042852
:1054F0000DD00D6009F1040967E1D9F80010EA1731
:10550000C1E90052F6E7D9F800100D80F2E70D70FE
:10551000F0E719F8041B8DF8001000208DF8010049
:10552000EA46012003E059F804AB4FF0FF30610771
:105530004FF0000102D40DE008F101018846B942A4
:105540000FDA8045F8DB1AF808100029F4D108E0DA
:1055500008F1010188468142FADB1AF80810002997
:10556000F6D105985B46A0EB080721463846179A06
:1055700000F094FA284400EB080507E04DE029E12B
:105580000DE01AF8010B5A4617999047B8F1010837
:10559000F7D25B4621463846179A13E142E00A22C9
:1055A0000092C4F302524FF0000A022A08D059F8C0
:1055B00004CB032A4FEAEC710AD00DE029E02AE07F
:1055C00009F1070121F00702F2E802C1914609E062
:1055D0000FFA8CFC4FEAEC71042A03D14FFA8CFCD1
:1055E0004FEAEC71002907DA0A460021DCF1000CD1
:1055F00061EB02012D2202E0220504D52B228DF859
:105600000420012203E0E20701D02022F7E79046C0
:1056100059E00A2102E010220DE010214FF0000AAB
:1056200000910BE010224FF0000A44F00404082718
:10563000009203E008224FF0000A0092C4F30252E5
:10564000022A05D059F804CB0021032A08D009E02A
:1056500009F1070121F00702F2E802C1914605E0D5
:105660001FFA8CFC042A01D10CF0FF0C4FF000084B
:10567000220728D5702806D0009B83F0100353EA38
:105680000A0305D00EE040228DF80420012208E034
:105690005CEA010206D030228DF804208DF8050066
:1056A00002229046009B83F0080353EA0A030AD1C2
:1056B0005CEA010201D1620705D530228DF8042091
:1056C0004FF001087F1E582804D034A003900EA884
:1056D00002900DE036A0F9E753466046009AFAF7CB
:1056E0001CFF84460398825C0298401E0290027060
:1056F0005CEA0100F0D1029806A9081A00F1200A1C
:10570000600702D524F4803400E00127574502DD0C
:10571000A7EB0A0000E0002000EB0A0100900598CA
:105720004144401A0590E00306D45B462146179A8F
:10573000059800F0B3F90544002706E001A85A4691
:10574000C05D179990476D1C7F1C4745F6DBE00351
:105750000CD55B462146179A059800F09FF9054441
:1057600004E030205A46179990476D1C0099481E56
:1057700000900029F5DC08E0029802995A4600786A
:10578000491C0291179990476D1CBAF10001AAF1CA
:10579000010AF1DC65E100000928010030313233F3
:1057A000343536373839616263646566000000005D
:1057B0003031323334353637383941424344454647
:1057C0000000000000F058F90544761C30780028ED
:1057D0007FF4ECAD19B02846BDE8F08F620700D425
:1057E000062709F1070222F0070CFCE80223E14634
:1057F00003F000485FEA080C02D00FF2702C0DE0B5
:105800005FEA045C02D50FF2682C07E05FEAC47C13
:1058100002D00FF2602C01E0AFF2700C4FF0FF38B5
:1058200023F00043CDF850C065280CD006DC452895
:1058300009D046281DD047283DD13DE0662818D024
:1058400067287ED138E00021112F01DB112000E014
:10585000781CCDE9000106A90EA8FFF7DDFCDDE903
:105860000F010E9A03910021009207F1010A0491A1
:105870004DE04FF000400097CDE9011006A90EA8B9
:10588000FFF7CAFCDDE90F0203920E9B119900227B
:10589000DDF80CA00093049211B9791C00EB010A09
:1058A000B7EB0A0004D4C0F1FF3007F1010A0490FD
:1058B000AAEB0700019044E0012F00DA0127002144
:1058C000112F01DD112000E03846CDE9000106A9C5
:1058D0000EA8FFF7A1FCDDE90F010E9A039100214C
:1058E00004910092BA4621070CD40399514500DA7D
:1058F0008A46BAF1010F05DD009AAAF10101515C57
:10590000302908D0B84202DA10F1040F06DA01217A
:10591000CDE9011015E0AAF10101E9E7002805DC55
:10592000049901440491AAEB000102E0411C514595
:1059300000DD8A460499401A401C01904FF0004057
:105940000290200704D40198504501DBCDF8048073
:1059500000208DF84F0002980DF14F07B0F1004F75
:1059600025D02B200E9002984FF0020800280CDA68
:10597000404202902D200E9007E00A210298FAF78B
:10598000B6FD3031029007F8011DB8F10001A8F111
:105990000108F2DC02980028EFD1791E0E980870F9
:1059A000307800F0200040F0450007F8020D12A802
:1059B000C01B00F107081498007800B1012000EB2B
:1059C0000A01019801EBE07105984144401A401E1C
:1059D0000590E00306D45B462146179A059800F02F
:1059E0005DF805441498007818B15A461799904705
:1059F0006D1CE00324D55B462146179A059800F0FC
:105A00004DF805441CE00498002807DBDDE903019C
:105A1000884203DD0098405C179901E01799302017
:105A20005A469047049805F10105401C04900198DE
:105A3000401E019004D12E205A46179990476D1CA4
:105A4000BAF10001AAF1010ADDDC05E017F8010B4B
:105A50005A46179990476D1CB8F10001A8F101084A
:105A6000F4DC5B462146179A0598ABE62D00000052
:105A70002B000000200000002DE9F0410446002525
:105A80001E461746880404D405E039462020B04756
:105A90006D1C641EF9D52846BDE8F0812DE9F04162
:105AA000044600251E469046C80301D5302700E075
:105AB0002027880404D505E041463846B0476D1CD0
:105AC000641EF9D52846BDE8F081004040404040C2
:105AD00040404040414141414140404040404040C1
