:020000040800F2
:10000000203700200101000881330008FD3000087E
:100010007D330008F1080008B54900080000000021
:10002000000000000000000000000000813E000809
:100030009909000800000000C13C0008A53E000826
:100040001B0100081B0100081B0100081B01000820
:100050001B0100081B0100081B0100081B01000810
:100060001B0100081B0100081B0100081B01000800
:100070001B0100081B0100081B0100081B010008F0
:100080001B0100081B0100081B0100081B010008E0
:100090001B0100081B0100081B0100081B010008D0
:1000A0001B0100081B0100081B0100081B010008C0
:1000B0001B0100081B010008C13F00081B010008CC
:1000C0001B0100081B0100081B0100081B010008A0
:1000D0001B010008A54900081B0100081B010008BE
:1000E0001B0100081B0100081B010008DFF80CD0F1
:1000F00000F044FB00480047554E00082037002020
:100100000648804706480047FEE7FEE7FEE7FEE7B1
:10011000FEE7FEE7FEE7FEE7FEE7FEE7613F0008D9
:10012000ED00000840EA01039B0703D009E008C97D
:10013000121F08C0042AFAD203E011F8013B00F8AC
:10014000013B521EF9D27047D2B201E000F8012BF8
:10015000491EFBD270470022F6E710B513460A4647
:1001600004461946FFF7F0FF204610BD30B505469E
:100170002A460B4612F8010B13F8014B08B1A042B6
:10018000F8D01CB1002802D06D1CF1E7284630BD24
:1001900010B5044604E00B7800F8013B03B1491C9C
:1001A000521EF8D2204610BD10B5002200E0521CAD
:1001B000835C8C5CA34201D1002BF8D1D8B2E1B2B0
:1001C000401A10BD034611F8012B00F8012B002A3C
:1001D000F9D11846704770B5064607F09BFF0468D2
:1001E00005460A220021304600F002FA2C6070BD5C
:1001F0002DE9FE4F804681EA0300C00F0C460090B7
:1002000021F0004123F00045B8EB0200A94105D2DE
:100210004046214690461C460B46024623F00040CD
:10022000104347D0270DC7F30A00C3F30A510290C9
:10023000401A019040286BDAC3F3130040F4801B8E
:100240000098924620B10023D2EB030A63EB0B0B1C
:1002500001985946C0F14002504600F098F9064610
:100260000D4650465946019A00F0B0F910EB0800CF
:100270006141002487EA115284EAE7731A4340D0AF
:10028000009A62B3019A012A4FEA075215DC001B5B
:1002900061EB02014FF0004202EA0752CDE9004251
:1002A000001C41F5801132462B4600F0E8F903B0FE
:1002B000BDE8F08F40462146F9E7001B61EB0201E3
:1002C000001C41F5801300185B412018A2F50017AF
:1002D00047EB030140EAD570B6196D4111E06D0896
:1002E0004FEA360645EAC0754FEA0752001B61EB3C
:1002F0000201001C41F5801149084FEA3000001945
:10030000514132462B4603B0BDE8F04F00F0A8B98A
:100310000098012240000023D0EB020263EBE0735F
:10032000009821464FEAE074B8EB000061EB04014D
:10033000E9E783F000435BE781F0004158E72DE9EE
:10034000FE4F81EA030404F0004421F000410094D0
:100350004FF0000B23F0004350EA01045ED052EA54
:1003600003045BD0C3F30A54C1F30A552C44A4F22E
:10037000F3340194A0FB0254C1F3130141F4801142
:10038000C3F3130343F4801301FB024400FB034E49
:10039000840A970A44EA815447EA8357A4FB076812
:1003A00002958D0A05FB07854FEA932C04FB0C543C
:1003B0002705029D4FEA065847EA1637B5EB0805B0
:1003C0006EEB070C870E920E47EA811742EA831202
:1003D000A7FB0201B6EB0B0164EB00042B0D43EA13
:1003E0000C335E1844EB1C50DA465146E7FB020121
:1003F000C5F313044FEA0B3343EA14534FEA0432B4
:10040000019C43EA0603A4F10C040294009CCDE98C
:1004100000B400F034F903B0BDE8F08F00200146CD
:10042000F9E72DE9F04D81EA030404F0004B21F0D7
:10043000004514464FF0000A23F0004150EA05023F
:1004400020D054EA01021DD0C5F30A570246C5F375
:100450001303C1F31300C1F30A5640F4801543F4AB
:100460008013A7EB0608101BD64608F2FD3873EB85
:10047000050002D308F1010801E092185B41B8F1D0
:10048000000F03DA00200146BDE8F08D00204FF494
:100490008011064684460EE0171B73EB050705D353
:1004A000121B63EB050306434CEA010C49084FEAB3
:1004B000300092185B4150EA0107EDD152EA030087
:1004C00012D082EA040083EA0501084305D0101B1C
:1004D000AB4106D20122002306E000224FF0004388
:1004E00002E06FF0010253101AEB06004CEB0851CA
:1004F00010EB0A0041EB0B01BDE8F04D00F0B0B885
:1005000030B50B46014600202022012409E021FAE3
:1005100002F59D4205D303FA02F5491B04FA02F5E0
:100520002844151EA2F10102F1DC30BD2DE9F05F77
:100530000546002092469B46884606468146402452
:100540001BE0284641464746224600F02FF8534616
:100550005A46C01A914110D311461846224600F05F
:1005600016F82D1A67EB01084F462246012000219C
:1005700000F00DF817EB00094E41201EA4F1010414
:10058000DFDC484631462A464346BDE8F09F202A34
:1005900004DB203A00FA02F1002070479140C2F1DA
:1005A000200320FA03F3194390407047202A04DB0C
:1005B000203A21FA02F00021704721FA02F3D040DC
:1005C000C2F120029140084319467047202A06DBF9
:1005D000CB17203A41FA02F043EAE07306E041FA11
:1005E00002F3D040C2F120029140084319467047FF
:1005F0002DE9F04791460F4680460446002614F840
:10060000015B2DB100F0CCF80068405DC007F6D169
:100610002B2D02D02D2D18D0641E4A463946204677
:1006200000F0C2F827B13968A14201D1C7F80080B3
:1006300071054FF002040BD54042002803DD07F09E
:1006400069FD0460A007BDE8F08746F48066E4E732
:100650000028F8DA07F05EFD04606FF00040F2E772
:1006600010B5141E73F1000408DA401C41F10001BA
:1006700092185B411A4301D120F0010010BD2DE911
:10068000F04D92469B4611B1B1FA81F202E0B0FA08
:1006900080F220329046FFF77AFF04460F4640EA88
:1006A0000A0041EA0B0153465A46084313D011464B
:1006B00053EA010019D0C8F140025046FFF776FF17
:1006C00005460E46504659464246FFF760FF08432E
:1006D00005D0012004E020463946BDE8F08D002019
:1006E000054346EAE0762C4337430A986305E40A5B
:1006F000A0EB08000022FD0A44EA47540A3002D564
:1007000000200146E9E7010510196941DDE90845C6
:1007100000196941BDE8F04DA2E7C1F30A52C1F3E7
:10072000130140F2FF3341F480119A4202DA0020B3
:100730000146704740F233439A42A2F2334202DC50
:100740005242FFF733BFFFF722BF000030B5041E4F
:1007500071F1000404DB4FF00044404264EB0101FE
:10076000141E73F1000405DB1C464FF00043524297
:1007700063EB0403994208BF904230BD064C074D1D
:1007800006E0E06840F0010394E807009847103461
:10079000AC42F6D3FFF7AEFC289800084898000852
:1007A00000487047708A00082DE9F05F82460078A3
:1007B000002715468B460AF10104B946302801D0BE
:1007C0009DB113E014F8010B0127782803D05828B5
:1007D00001D045B10AE00DB1102D07D10027102539
:1007E00014F8010B02E0082500E00A250026B046B7
:1007F0000EE005FB080005FB06F1012701EB1046A2
:100800001FFA80F8B6F5803F00D3B94614F8010B03
:10081000294600F018F80028EBDABBF1000F05D0EC
:100820000FB1641E00E05446CBF80040B9F1000F50
:1008300006D007F06FFC02210160C81EBDE8F09FE2
:1008400048EA0640FAE73A2800D2303820F0200281
:10085000412A01D3A2F13700884201D34FF0FF3083
:100860007047000080B586B00146049040F27340A6
:10087000C2F2000000783228039104DBFFE74FF05A
:10088000FF30059030E040F27340C2F20000017882
:1008900001EB810140F27442C2F2000202EB8101DD
:1008A000049B4FF00F0C02900846194601926246D5
:1008B000FFF76EFC02990A7802EB8202019B03EBC0
:1008C00082024FF0000C82F80FC00A7802EB82021D
:1008D00003EB8202A2F810C00A7801320A700A788B
:1008E000013A05920090FFE7059806B080BD000030
:1008F000FFE7FEE780B586B004F064F940F2744E7D
:10090000C2F2000E4FF47A7105907046FFF723FC97
:1009100040F27340C2F2000000210170049102F025
:1009200071FD49F2F272C0F600022020049902F033
:1009300051FF49F60B02C0F6000210200499039003
:100940000846039902F046FF49F2FB72C0F6000226
:100950004620039902F03EFF49F60202C0F600026B
:100960002121049802F036FF684608210160282002
:100970000323039A02911146049A03F073F8684620
:10098000029901606E2032220223039903F06AF873
:1009900003F000F906B080BD7047000081B0EFF3AE
:1009A000108072B60090FFE7FEE7000082B00146BB
:1009B000019040F62010C2F200000022C26142F213
:1009C0001000C4F20200026842F0040202600268F1
:1009D00042F040020260009102B0704782B00146CE
:1009E000019040F62010C2F200000022C26142F2E3
:1009F0001000C4F20200026842F002020260019A92
:100A000042F21403C4F202031A60026842F0400288
:100A10000260009102B0704784B00A46034603901A
:100A2000ADF80A1040F62010C2F200000021C161AA
:100A300042F21000C4F20200016841F001010160BD
:100A4000BDF80A00039908800192009304B0704732
:100A500081B0002000900120002809D1FFE742F278
:100A60001C00C4F20200006810F0010F09D115E06B
:100A700042F20C00C4F20200006810F0100F0DD01A
:100A8000FFE740F62010C2F20000C16941F0020108
:100A9000C161009840F010000090FFE7012000289D
:100AA00009D1FFE742F21C00C4F20200006810F016
:100AB000010F09D115E042F20C00C4F202000068F7
:100AC00010F0040F0DD0FFE740F62010C2F2000036
:100AD000C16941F00101C161009840F0040000903B
:100AE000FFE70020002809D1FFE742F21C00C4F212
:100AF0000200006810F0010F0AD11CE042F20C0065
:100B0000C4F20200006840F20111084213D0FFE76E
:100B100040F62010C2F20000C16941F00401C16139
:100B2000FFE742F21C00C4F20200016821F001015B
:100B30000160FFE7FFE7FFE7009840F201118842FC
:100B400009D1FFE742F21C00C4F20200016821F063
:100B50000101016006E0009842F20C01C4F20201BA
:100B60000860FFE7FFE701B07047000080B584B080
:100B700001460290009100F0DBFC0190FFE742F299
:100B80000C00C4F20200006810F0010F1AD0FFE759
:100B900002980130002814D0FFE7029800280BD0FB
:100BA000FFE700F0C5FCDDF804E0A0EB0E00DDF887
:100BB00008E0704504D9FFE703208DF80F006EE0D0
:100BC000FFE7DCE70120002809D1FFE742F21C0023
:100BD000C4F20200006810F0010F09D111E042F2E6
:100BE0000C00C4F20200006810F0200F09D0FFE7EB
:100BF000FFE742F20C00C4F2020020210160FFE78F
:100C0000FFE70120002809D1FFE742F21C00C4F2EF
:100C10000200006810F0010F36D108E042F20C002B
:100C2000C4F20200006810F0100F2DD1FFE7002081
:100C3000002809D1FFE742F21C00C4F2020000685C
:100C400010F0010F20D109E042F20C00C4F20200C2
:100C5000006840F20111084216D1FFE70120002888
:100C600009D1FFE742F21C00C4F20200006810F054
:100C7000010F09D10FE042F20C00C4F2020000683B
:100C800010F0040F07D0FFE7FFF7E2FE4FF0010E70
:100C90008DF80FE003E000208DF80F00FFE79DF8CE
:100CA0000F0004B080BD000080B584B00146029002
:100CB000002001900091FFE7019840F27341C2F2D9
:100CC00000010978884217DAFFE7019800EB8000FD
:100CD00040F27441C2F2000101EB80000299FFF77B
:100CE00063FA002803D1FFE70198039008E0FFE7CB
:100CF000019801300190DFE74FF0FF300390FFE7EC
:100D0000039804B080BD000080B540F60000C4F236
:100D100001001021002200F0E9FB80BD80B540F603
:100D20000000C4F201001021012200F0DFFB80BDB1
:100D300080B588B00146079000208DF81B00079809
:100D400090F821000228059107D0FFE707980421B9
:100D5000816301208DF81B0077E007980068016827
:100D600021F00E01016007980068016821F001017F
:100D70000160079800680821C4F20201884203D18B
:100D8000FFE70120049047E0079800681C21C4F2A7
:100D90000201884203D1FFE71020039039E0079851
:100DA00000683021C4F20201884204D1FFE74FF409
:100DB000807002902AE0079800684421C4F2020182
:100DC000884204D1FFE74FF4805001901BE0079860
:100DD00000685821C4F20201884204D1FFE74FF4B1
:100DE000803000900CE0079800686C21C4F202018A
:100DF0004FF08072884208BF4FF480120092FFE7E4
:100E000000980190FFE701980290FFE70298039095
:100E1000FFE703980490FFE704980421C4F202015D
:100E200008600798012180F82110FFE7079800214A
:100E300080F82010FFE70798406B002804D0FFE7F8
:100E40000798416B8847FFE7FFE79DF81B0008B054
:100E500080BD000080B584B001460390009100F091
:100E600067FB02900398019001980130002809D097
:100E7000FFE740F21500C2F2000000780199084433
:100E80000190FFE7FFE700F053FBDDF808E0A0EB7F
:100E90000E00DDF804E0704501D2FFE7F3E704B08F
:100EA00080BD000080B588B00A46034606900591D3
:100EB00001208DF813000020039002920193FFE7B8
:100EC00040F62010C2F20000007E012804D1FFE7A6
:100ED00002208DF81F0071E040F62010C2F20000E1
:100EE00001210176FFE7FFE70698006802281CD180
:100EF000FFE74CF25030FFF739FE002814D1FFE72E
:100F00000120FFF753FD4CF25030FFF72FFE8DF814
:100F1000130042F21000C4F20200D0F800E02EF0FC
:100F2000040EC0F800E0FFE73BE04CF25030FFF762
:100F30001DFE002834D1FFE705984FF0FF31016016
:100F4000069880680390FFE7039806998A68C96845
:100F500002EB8121884222D2FFE70398FFF73EFD92
:100F60004CF25030FFF702FE8DF8130042F21000F1
:100F7000C4F20200D0F800E02EF0020EC0F800E04B
:100F80009DF81300002804D0FFE703980599086036
:100F900005E0FFE7039800F580600390D4E7FFE7E2
:100FA000FFE7FFE740F62010C2F2000000210176C3
:100FB000FFE79DF813008DF81F00FFE79DF81F0065
:100FC00008B080BD42F21000C4F20200016841F096
:100FD0008001016000207047B0B58CB09C469646F9
:100FE0000C4605460A9009910793069201208DF858
:100FF000170000208DF816008DF81500CDF810E0D0
:10100000CDF80CC002940195FFE740F62010C2F223
:101010000000007E012804D1FFE702208DF82F0098
:1010200079E040F62010C2F2000001210176FFE7CE
:10103000FFE74CF25030FFF799FD8DF817009DF84F
:10104000170000285AD1FFE70A98012804D1FFE7CA
:1010500001208DF815000CE00A98022804D1FFE762
:1010600002208DF8150003E004208DF81500FFE73D
:10107000FFE700208DF81600FFE79DF816009DF8A9
:101080001510884239DAFFE709989DF8161000EB31
:101090004100069A079B4FEA011C4FF0200EAEEB71
:1010A000011E03FA0EFE22FA0CF242EA0E026FF063
:1010B0001F0C0CEB0111CB400029A8BF1A4691B2BE
:1010C000FFF7AAFC4CF25030FFF750FD8DF81700E7
:1010D00042F21000C4F20200016821F00101016037
:1010E0009DF81700002801D0FFE706E0FFE79DF814
:1010F000160001308DF81600BFE7FFE7FFE740F666
:101100002010C2F2000000210176FFE79DF81700D1
:101110008DF82F00FFE79DF82F000CB0B0BD000048
:1011200081B000208DF8030042F21000C4F20200EA
:10113000006810F0800F1CD0FFE742F20400C4F2F8
:10114000020040F22311C4F26751016048F6AB116E
:10115000CCF6EF51016042F21000C4F202000068C8
:1011600010F0800F04D0FFE701208DF80300FFE7A7
:10117000FFE79DF8030001B07047000093B00A46F6
:10118000034612901191002010900C900892079342
:10119000FFE7119800681099C840002800F0888186
:1011A000FFE71098012101FA00F00F9011980068F4
:1011B0000F9908400E900E980F99884240F0748164
:1011C000FFE7119840680028069051D0FFE7069885
:1011D00001283AD0FFE7069802283FD0FFE706989B
:1011E000032860D0FFE70698112832D0FFE7069861
:1011F000122838D0FFE70020C1F211000699814281
:1012000036D0FFE70020C1F21200069981422FD0AC
:10121000FFE70020C1F221000699814228D0FFE7B4
:101220000020C1F222000699814221D0FFE7002070
:10123000C1F23100069981421AD0FFE70020C1F2C5
:1012400032000699814213D030E01198C0680C90AA
:101250002DE01198C06804300C9028E01198C06807
:1012600008300C9023E01198C0680C300C901EE000
:1012700011988068002803D1FFE704200C9011E04A
:1012800011988068012806D1FFE708200C900F987C
:101290001299086105E008200C900F981299486196
:1012A000FFE7FFE703E000200C9000E0FFE70E9867
:1012B000FF2803D8FFE71298059003E01298043046
:1012C0000590FFE705980B900E98FF2804D8FFE7DC
:1012D00010988000049006E010986FF01F0101EB59
:1012E00080000490FFE704980A900B9800680A9920
:1012F0000F228A4090430C9A02FA01F108430B999D
:10130000086011984068C000002840F1CC80FFE7D9
:10131000FFE741F21800C4F20200016841F0010148
:101320000160006800F00100099009980390FFE750
:10133000109820F003000821C4F2010140580D90DC
:10134000109800F0030080000F2101FA00F00D99C1
:1013500021EA00000D90129840F60001C4F201014C
:10136000884203D1FFE70020029026E0129840F661
:101370000041C4F20101884203D1FFE7012001903E
:1013800018E0129841F20001C4F20101884203D131
:10139000FFE7022000900AE0129841F20041C4F2F7
:1013A00001010422884208BF03220092FFE700984F
:1013B0000190FFE701980290FFE70298109901F071
:1013C0000301890088400D9908430D900D981099EC
:1013D00021F003010822C4F20102885011984068EC
:1013E000C003002809D5FFE70E9840F20041C4F27F
:1013F00001010A681043086009E00E9840F20041BC
:10140000C4F201010A6822EA00000860FFE71198AF
:1014100040688003002809D5FFE70E9840F2044198
:10142000C4F201010A681043086009E00E9840F216
:101430000441C4F201010A6822EA00000860FFE7E3
:1014400011984068C002002809D5FFE70E9840F2C5
:101450000841C4F201010A681043086009E00E98CF
:1014600040F20841C4F201010A6822EA0000086063
:10147000FFE7119840688002002809D5FFE70E9821
:1014800040F20C41C4F201010A681043086009E00F
:101490000E9840F20C41C4F201010A6822EA0000F1
:1014A0000860FFE7FFE7FFE710980130109070E653
:1014B00013B0704784B00A4603460390ADF80A1093
:1014C00003988068BDF80A1008420192009304D086
:1014D000FFE701208DF8090003E000208DF80900E6
:1014E000FFE79DF8090004B07047000080B585B0A3
:1014F00013468C4686460490ADF80E108DF80D20EC
:101500009DF80D0000280293CDF804C0CDF800E04E
:1015100005D0FFE7BDF80E000499086105E0BDF8AD
:101520000E00000404990861FFE705B080BD0000CB
:1015300043F26820C2F200000068704740F21500D4
:10154000C2F20000007843F26821C2F200010A688A
:10155000104408607047000080B582B042F200007D
:10156000C4F20200016841F010010160032000F0A4
:10157000EDF80F2000F006F8019000F083F800204D
:1015800002B080BD80B590B001460F900020089059
:1015900007908DF817000391FFE741F21C00C4F299
:1015A0000200016841F004010160006800F00400DD
:1015B000049004980290FFE70AA806A900F006FA32
:1015C0000D9808900898002804D1FFE700F038FA39
:1015D000099004E000F034FA40000990FFE7099810
:1015E0004DF68361C4F21B31A0FB01014FF0FF32C5
:1015F00002EB9141079140F69C01C2F2000140F6D6
:101600000002C4F200020A6040F2E732CA60079AA0
:101610004A6000220A618A608A610190084600F0EF
:1016200053FE8DF817009DF81700002826D1FFE71C
:1016300040F69C00C2F2000000F098FE8DF8170002
:101640009DF81700002818D1FFE71E2000F04EF883
:101650000F980F280CD8FFE70F991E20002200F0EA
:1016600051F80F9840F21801C2F20001086003E03F
:1016700001208DF81700FFE7FFE7FFE79DF817004F
:1016800010B080BD85B0FFE741F21800C4F202003F
:10169000016841F001010160006800F00100049060
:1016A00004980190FFE7FFE741F21C00C4F202003A
:1016B000016841F080510160006800F080500390A3
:1016C00003980090FFE7FFE70420C4F201000168DF
:1016D0000291029921F0E0610291029941F00071BA
:1016E000029102990160FFE705B0704780B582B0B2
:1016F00001468DF807009DF90700009103F070F98D
:1017000002B080BD80B58AB013468C4686468DF8FF
:10171000270008910792002006900593CDF810C08D
:10172000CDF80CE003F078F9069006980899079A2E
:101730009DF92730029301F025FE02990190084699
:10174000019903F071F90AB080BD000080B582B044
:10175000014601900198009103F08CF902B080BD20
:1017600080B588B00A460346069005910698002881
:101770000392029304D1FFE701208DF81F0020E1BE
:10178000059842F20001C4F20201096801F0070164
:10179000884216D9FFE742F20000C4F20200016855
:1017A00021F00701059A11430160006800F007006D
:1017B0000599884204D0FFE701208DF81F0000E161
:1017C000FFE706980068800700282AD5FFE70698FB
:1017D00000684007002809D5FFE741F20400C4F281
:1017E0000200016841F4E0610160FFE706980068CB
:1017F0000007002809D5FFE741F20400C4F2020007
:10180000016841F460510160FFE741F20400C4F255
:101810000200016821F0F001069A9268114301600C
:10182000FFE706980068C007002862D0FFE7069827
:10183000406801280ED1FFE741F20000C4F2020027
:10184000006810F4003F04D1FFE701208DF81F006D
:10185000B7E021E00698406802280ED1FFE741F288
:101860000000C4F20200006810F0007F04D1FFE71E
:1018700001208DF81F00A4E00DE041F20000C4F249
:101880000200006810F0020F04D1FFE701208DF87C
:101890001F0096E0FFE7FFE741F20400C4F20200F8
:1018A000016821F00301069A526811430160FFF7B5
:1018B0003FFE0490FFE741F20400C4F2020000681A
:1018C00000F00C0006994968B0EB810F10D0FFE7DB
:1018D000FFF72EFEDDF810E0A0EB0E0041F2893E8E
:1018E000704504D3FFE703208DF81F0069E0E2E7AD
:1018F000FFE7059842F20001C4F20201096801F015
:101900000701884216D2FFE742F20000C4F202004B
:10191000016821F00701059A11430160006800F099
:1019200007000599884204D0FFE701208DF81F00C9
:1019300047E0FFE706980068400700280CD5FFE75E
:1019400041F20400C4F20200016821F4E061069A49
:10195000D26811430160FFE706980068000700287D
:101960000DD5FFE741F20400C4F20200016821F442
:101970006051069A126941EAC2010160FFE700F076
:1019800087F841F2040EC4F2020EDEF800E0CEF356
:10199000031E48F67421C0F6000111F80E10C8406D
:1019A00040F20801C2F20001086040F21800C2F2E1
:1019B00000000068FFF7E6FD00218DF81F10019080
:1019C000FFE79DF81F0008B080BD000084B00A4604
:1019D00003460390029103980F21016041F2040035
:1019E000C4F20200016801F00301DDF80CC0CCF87C
:1019F0000410016801F0F001DDF80CC0CCF808100B
:101A0000016801F4E061DDF80CC0CCF80C1000684E
:101A100000F46050C0080399086142F20000C4F26B
:101A20000200006800F0070002990860019200932C
:101A300004B0704740F20800C2F20000006870472E
:101A400080B5FFF7F7FF41F2040EC4F2020EDEF894
:101A500000E0CEF3022E48F68421C0F6000111F812
:101A60000E10C84080BD000080B5FFF7E3FF41F2D3
:101A7000040EC4F2020EDEF800E0CEF3C22E48F6E9
:101A80008421C0F6000111F80E10C84080BD00008E
:101A900086B000200590049003900290019041F2DE
:101AA0000400C4F2020000680590059800F00C00E4
:101AB00001460028009140D0FFE70098042804D098
:101AC000FFE70098082806D038E041F20020C0F275
:101AD0007A00019038E00598C0F3834048F68C21E5
:101AE000C0F60001085C02909DF81600C0070028AF
:101AF00018D0FFE741F20400C4F202000068C0F30E
:101B0000404048F69C21C0F60001085C0490029811
:101B100041F20021C0F27A0148430499B0FBF1F090
:101B2000039007E0029840F60011C0F23D014843DF
:101B30000390FFE70398019006E0FFE741F20020E1
:101B4000C0F27A000190FFE7019806B070470000EC
:101B500080B588B00146069006980028019104D10E
:101B6000FFE701208DF81F004EE306980068C007CC
:101B7000002800F0B580FFE741F20400C4F2020043
:101B8000006800F00C00042813D0FFE741F20400C5
:101B9000C4F20200006800F00C0008281CD1FFE726
:101BA00041F20400C4F20200006810F4803F13D038
:101BB000FFE741F20000C4F20200006810F4003FA9
:101BC00009D0FFE706984068002804D1FFE701200C
:101BD0008DF81F0018E382E0FFE706984068B0F533
:101BE000803F09D1FFE741F20000C4F20200016822
:101BF00041F48031016033E00698406800280DD13F
:101C0000FFE741F20000C4F20200016821F48031D4
:101C10000160016821F48021016020E0069840689D
:101C2000B0F5A02F0DD1FFE741F20000C4F2020091
:101C3000016841F480210160016841F48031016054
:101C40000CE041F20000C4F20200016821F480318E
:101C50000160016821F480210160FFE7FFE7FFE7F1
:101C6000FFE70698406800281CD0FFE7FFF760FCFC
:101C70000590FFE741F20000C4F20200006810F492
:101C8000003F0ED1FFE7FFF753FCDDF814E0A0EBB7
:101C90000E00652804D3FFE703208DF81F00B3E290
:101CA000E8E71BE0FFF744FC0590FFE741F2000086
:101CB000C4F20200006810F4003F0ED0FFE7FFF707
:101CC00037FCDDF814E0A0EB0E00652804D3FFE735
:101CD00003208DF81F0097E2E8E7FFE7FFE7FFE743
:101CE000069800688007002840F19280FFE741F2E3
:101CF0000400C4F20200006810F00C0F13D0FFE7DC
:101D000041F20400C4F20200006800F00C00082850
:101D100029D1FFE741F20400C4F20200006810F488
:101D2000803F20D1FFE741F20000C4F202000068CA
:101D300010F0020F09D0FFE706980069012804D0CF
:101D4000FFE701208DF81F005EE241F20000C4F2BF
:101D50000200016821F0F801069A526941EAC201C5
:101D60000160FFE753E00698006900282DD0FFE7E7
:101D70000020C4F2422001210160FFF7D9FB059049
:101D8000FFE741F20000C4F20200006810F0020F09
:101D90000ED1FFE7FFF7CCFBDDF814E0A0EB0E005F
:101DA000032804D3FFE703208DF81F002CE2E8E7A7
:101DB00041F20000C4F20200016821F0F801069A25
:101DC000526941EAC201016020E00020C4F24220D1
:101DD00000210160FFF7ACFB0590FFE741F2000036
:101DE000C4F20200006810F0020F0ED0FFE7FFF708
:101DF0009FFBDDF814E0A0EB0E00032804D3FFE7FF
:101E000003208DF81F00FFE1E8E7FFE7FFE7FFE7AA
:101E100006980068000700284DD5FFE706988069FE
:101E2000002825D0FFE740F28040C4F24220012183
:101E30000160FFF77DFB0590FFE741F22400C4F24B
:101E40000200006810F0020F0ED1FFE7FFF770FBF1
:101E5000DDF814E0A0EB0E00032804D3FFE7032015
:101E60008DF81F00D0E1E8E7012001F0A1FF21E09B
:101E700040F28040C4F2422000210160FFF758FB8D
:101E80000590FFE741F22400C4F20200006810F060
:101E9000020F0ED0FFE7FFF74BFBDDF814E0A0EBDD
:101EA0000E00032804D3FFE703208DF81F00ABE1E9
:101EB000E8E7FFE7FFE7069800684007002840F1E1
:101EC000E180FFE700208DF80F0041F21C00C4F212
:101ED0000200006810F0805F14D1FFE7FFE741F2D5
:101EE0001C00C4F20200016841F0805101600068EA
:101EF00000F08050029002980090FFE701208DF8DA
:101F00000F00FFE747F20000C4F20000006810F481
:101F1000807F24D1FFE747F20000C4F2000001688F
:101F200041F480710160FFF703FB0590FFE747F282
:101F30000000C4F20000006810F4807F0ED1FFE7BB
:101F4000FFF7F6FADDF814E0A0EB0E00652804D3E5
:101F5000FFE703208DF81F0056E1E8E7FFE7FFE702
:101F60000698C068012809D1FFE741F22000C4F2B9
:101F70000200016841F00101016032E00698C0688A
:101F800000280DD1FFE741F22000C4F202000168F1
:101F900021F001010160016821F0040101601FE0EE
:101FA0000698C06805280DD1FFE741F22000C4F271
:101FB0000200016841F004010160016841F0010183
:101FC00001600CE041F22000C4F20200016821F03F
:101FD00001010160016821F004010160FFE7FFE7F2
:101FE000FFE7FFE70698C06800281ED0FFE7FFF76D
:101FF0009FFA0590FFE741F22000C4F2020000685A
:1020000010F0020F10D1FFE7FFF792FADDF814E0AD
:10201000A0EB0E0041F2893E704504D3FFE7032098
:102020008DF81F00F0E0E6E71DE0FFF781FA05906C
:10203000FFE741F22000C4F20200006810F0020F36
:1020400010D0FFE7FFF774FADDF814E0A0EB0E0004
:1020500041F2893E704504D3FFE703208DF81F004D
:10206000D2E0E6E7FFE79DF80F00012809D1FFE77E
:1020700041F21C00C4F20200016821F080510160AD
:10208000FFE7FFE70698C069002800F0B980FFE786
:1020900041F20400C4F20200006800F00C000828BD
:1020A00000F08880FFE70698C069022860D1FFE74A
:1020B0006020C4F2422000210160FFF739FA059048
:1020C000FFE741F20000C4F20200006810F0007F58
:1020D0000ED0FFE7FFF72CFADDF814E0A0EB0E00BE
:1020E000032804D3FFE703208DF81F008CE0E8E706
:1020F0000698006AB0F5803F0CD1FFE741F204007A
:10210000C4F20200016821F40031069A926811437A
:102110000160FFE741F20400C4F20200016821F40B
:102120007411069A136A526A1A43114301606020BF
:10213000C4F2422001210160FFF7FAF90590FFE7A0
:1021400041F20000C4F20200006810F0007F0ED1DE
:10215000FFE7FFF7EDF9DDF814E0A0EB0E00032830
:1021600004D3FFE703208DF81F004DE0E8E720E0EF
:102170006020C4F2422000210160FFF7D9F90590E8
:10218000FFE741F20000C4F20200006810F0007F97
:102190000ED0FFE7FFF7CCF9DDF814E0A0EB0E005E
:1021A000032804D3FFE703208DF81F002CE0E8E7A5
:1021B000FFE724E00698C069012804D1FFE7012069
:1021C0008DF81F0020E041F20400C4F20200006814
:1021D0000490049800F480300699096A884208D176
:1021E000FFE7049800F470100699496A884204D009
:1021F000FFE701208DF81F0006E0FFE7FFE7FFE79C
:1022000000208DF81F00FFE79DF81F0008B080BD7B
:1022100082B001460190009102B0704782B0014641
:102220000190009102B0704787B00A4603460590BE
:10223000049101920093FFE7059890F83C00012873
:1022400004D1FFE702208DF81B0039E00598012139
:1022500080F83C10FFE7FFE70598022180F83D1069
:1022600005980068406803900598006880680290AF
:10227000039820F0700003900498006803990843C5
:102280000390029820F08000029004984068029920
:1022900008430290039805990968486002980599D7
:1022A000096888600598012180F83D10FFE70598CE
:1022B000002180F83C10FFE700208DF81B00FFE7AD
:1022C0009DF81B0007B0704780B584B001460290AE
:1022D00002980028019104D1FFE701208DF80F003A
:1022E00021E0029890F83D00002808D1FFE702980D
:1022F000002180F83C10029800F01AF8FFE70298DD
:10230000022180F83D10029850F8041B0090084606
:10231000009901F05DFE0298012180F83D10002037
:102320008DF80F00FFE79DF80F0004B080BD00009E
:1023300084B00146039003980068B0F1804F01918A
:1023400011D1FFE7FFE741F21C00C4F2020001686F
:1023500041F001010160006800F001000290029864
:102360000090FFE7FFE704B07047000083B001462C
:10237000029002980068C26842F00102C2600298AE
:102380000068806800F0070001900198062800911D
:1023900007D0FFE702980068016841F00101016081
:1023A000FFE7002003B0704780B58CB00A460346B3
:1023B0000A90099107920693FFE70A9890F83C006B
:1023C000012804D1FFE702208DF82F00B7E00A981A
:1023D000012180F83C10FFE7FFE70A98022180F80E
:1023E0003D100A98006880680890089820F07700EF
:1023F0000890089820F47F40089008980A99096886
:102400008860099800680028059000F08280FFE746
:10241000059810287DD0FFE70598202879D0FFE7A0
:102420000598302875D0FFE70598402861D0FFE770
:10243000059850283DD0FFE70598602849D0FFE770
:10244000059870280BD0FFE70598B0F5805F05D0A0
:10245000FFE70598B0F5005F19D061E061E00A98E8
:10246000006809994A688B68C96804911946049BF9
:1024700001F050FE0A98006880680890089840F0C3
:102480007700089008980A990968886049E00A98D6
:10249000006809994A688B68C96803911946039BCB
:1024A00001F038FE0A980068816841F4804181603B
:1024B00037E00A98006809994A68C968029111468C
:1024C000029A02F003F80A980068502101F048FED1
:1024D00027E00A98006809994A68C968019111467D
:1024E000019A02F025F80A980068602101F038FE90
:1024F00017E00A98006809994A68C968009111466E
:10250000009A01F0E3FF0A980068402101F028FEDC
:1025100007E00A9800680999096801F021FE00E0C7
:10252000FFE70A98012180F83D10FFE70A98002193
:1025300080F83C10FFE700208DF82F00FFE79DF8A2
:102540002F000CB080BD000082B0014601900091C8
:1025500002B0704780B582B00146019001980068D2
:10256000006900F002000022B2EB500F009129D068
:10257000FFE701980068C06800F002000021B1EB9D
:10258000500F1ED0FFE7019800686FF00201016153
:1025900001980121017701980068806910F0030F0C
:1025A00004D0FFE70198FFF7CFFF06E0019800F0A5
:1025B00047F9019800F034FAFFE70198002101770C
:1025C000FFE7FFE701980068006900F004000021C0
:1025D000B1EB900F29D0FFE701980068C06800F0C8
:1025E00004000021B1EB900F1ED0FFE701980068B6
:1025F0006FF00401016101980221017701980068E0
:10260000806910F4407F04D0FFE70198FFF79CFF3A
:1026100006E0019800F014F9019800F001FAFFE7D4
:10262000019800210177FFE7FFE701980068006942
:1026300000F008000021B1EBD00F29D0FFE701988E
:102640000068C06800F008000021B1EBD00F1ED078
:10265000FFE7019800686FF008010161019804210B
:10266000017701980068C06910F0030F04D0FFE7FC
:102670000198FFF769FF06E0019800F0E1F8019882
:1026800000F0CEF9FFE7019800210177FFE7FFE7AF
:1026900001980068006900F010000021B1EB101FE4
:1026A00029D0FFE701980068C06800F01000002101
:1026B000B1EB101F1ED0FFE7019800686FF010010A
:1026C000016101980821017701980068C06910F440
:1026D000407F04D0FFE70198FFF736FF06E001983E
:1026E00000F0AEF8019800F09BF9FFE70198002197
:1026F0000177FFE7FFE701980068006910F0010F1C
:1027000011D0FFE701980068C06810F0010F09D0F0
:10271000FFE7019800686FF001010161019800F086
:10272000B9F9FFE7FFE701980068006900F0800051
:102730000021B1EBD01F14D0FFE701980068C068FA
:1027400000F080000021B1EBD01F09D0FFE7019815
:1027500000686FF0800101610198FFF759FDFFE704
:10276000FFE701980068006900F040000021B1EB2C
:10277000901F14D0FFE701980068C06800F0400087
:102780000021B1EB901F09D0FFE7019800686FF0BE
:1027900040010161019800F091F9FFE7FFE701981E
:1027A0000068006900F020000021B1EB501F14D038
:1027B000FFE701980068C06800F020000021B1EB3D
:1027C000501F09D0FFE7019800686FF020010161F8
:1027D0000198FFF723FDFFE7FFE702B080BD00008F
:1027E00080B588B0014607900020069005900490BF
:1027F000039007980068B0F1804F01911DD1FFE769
:10280000FFE741F21800C4F20200016841F0040140
:102810000160006800F00400029002980090FFE759
:102820000120039002200490069040F60000C4F2BC
:10283000010003A9FEF7A2FCFFE708B080BD00007D
:1028400082B001460190009102B0704780B588B017
:1028500013468C4686460690059104920393CDF864
:1028600008C0CDF804E0FFE7069890F83C00012886
:1028700004D1FFE702208DF81F0093E006980121A4
:1028800080F83C10FFE7FFE70698022180F83D1032
:1028900004980C28009000F276800099DFE801F09F
:1028A00007737373227373733D73737358000698C1
:1028B0000068059901F06EFC06980068816941F096
:1028C0000801816106980068816921F00401816135
:1028D0000598006906990968D1F818E040EA0E00E9
:1028E000886151E006980068059901F0BFFC0698E0
:1028F0000068816941F4006181610698006881691E
:1029000021F4806181610598006906990968D1F810
:1029100018E04EEA0020886136E0069800680599C4
:1029200001F014FD06980068C16941F00801C16119
:1029300006980068C16921F00401C1610598006929
:1029400006990968D1F81CE040EA0E00C8611BE056
:1029500006980068059901F069FD06980068C1694C
:1029600041F40061C16106980068C16921F4806189
:10297000C1610598006906990968D1F81CE04EEA22
:102980000020C86100E0FFE70698012180F83D10B3
:10299000FFE70698002180F83C10FFE700208DF843
:1029A0001F00FFE79DF81F0008B080BD80B584B010
:1029B0000146029002980028019104D1FFE701200E
:1029C0008DF80F0021E0029890F83D00002808D112
:1029D000FFE70298002180F83C10029800F01AF8F6
:1029E000FFE70298022180F83D10029850F8041B7E
:1029F00000900846009901F0EBFA0298012180F856
:102A00003D1000208DF80F00FFE79DF80F0004B087
:102A100080BD000082B001460190009102B0704775
:102A200082B001460190009102B0704780B586B037
:102A30000A460346059004910598006804994FF0F2
:102A4000010C02926246019301F03EFB059800687A
:102A500042F60041C4F20101884207D1FFE7059820
:102A60000068416C41F400414164FFE7059800684B
:102A7000806800F0070003900398062807D0FFE75E
:102A800005980068016841F001010160FFE700203E
:102A900006B080BD80B582B0014601900198006803
:102AA00040F60002C4F200029042009103D1FFE719
:102AB000FEF744FDFFE702B080BD000082B0014692
:102AC0000190009102B0704782B0014601900091E0
:102AD00002B0704780B58CB001460B900B9800682F
:102AE00000680A900B980068C06809900B9800680D
:102AF000406908900020079006900A9800F00F00A7
:102B0000079007980028059112D1FFE79DF828004B
:102B1000800600280BD5FFE79DF8240080060028DA
:102B200005D5FFE70B9801F073FD0490E0E0FFE7A7
:102B30000798002800F0BA80FFE79DF82000C00742
:102B4000002807D1FFE7BDF8240010F4907F00F0C3
:102B5000AD80FFE79DF82800C00700280CD0FFE7F4
:102B60009DF82500C007002806D0FFE70B98C16B31
:102B700041F00101C163FFE79DF8280040070028EC
:102B80000CD5FFE79DF82000C007002806D0FFE71E
:102B90000B98C16B41F00201C163FFE79DF828006B
:102BA000800700280CD5FFE79DF82000C00700280B
:102BB00006D0FFE70B98C16B41F00401C163FFE74A
:102BC0009DF82800000700280CD5FFE79DF820009D
:102BD000C007002806D0FFE70B98C16B41F0080141
:102BE000C163FFE70B98C06B00285ED0FFE79DF83C
:102BF0002800800600280BD5FFE79DF824008006FA
:102C0000002805D5FFE70B9801F002FD0390FFE7D0
:102C10000B9800684069C0F3801006900B98C06B59
:102C200010F0080F04D1FFE70698002833D0FFE723
:102C30000B9801F0C1FC0B980068406910F0400F40
:102C400024D0FFE70B980068416921F04001416101
:102C50000B98406B002814D0FFE70B98406B44F2B0
:102C60009551C0F6000141630B98406BFEF760F888
:102C7000002805D0FFE70B98406B416B8847FFE7C2
:102C800003E00B98FFF720FFFFE703E00B98FFF747
:102C90001BFFFFE708E00B98FFF716FF0B984FF0BC
:102CA000000EC0F83CE0FFE7FFE721E09DF82800B8
:102CB000000600280BD5FFE79DF824000006002839
:102CC00005D5FFE70B9801F0B9FD029010E09DF8E3
:102CD0002800400600280BD5FFE79DF82400400699
:102CE000002805D5FFE70B9801F07CFC0190FFE779
:102CF0000CB080BD80B584B00146029002980028D7
:102D0000019104D1FFE701208DF80F0041E0029806
:102D10008069002801D0FFE700E0FFE7029890F803
:102D20003900002808D1FFE70298002180F8381008
:102D3000029800F033F8FFE70298242180F8391058
:102D400002980068C16821F40051C160029801F046
:102D5000DDFC02980068016921F49041016102984C
:102D60000068416921F02A01416102980068C16848
:102D700041F40051C16002980021C16302984FF0F4
:102D8000200E80F839E0029880F83AE08DF80F10B4
:102D9000FFE79DF80F0004B080BD000080B58EB045
:102DA00001460D9000200C900B900A9009900D9810
:102DB000006843F60002C4F201029042069146D137
:102DC000FFE7FFE741F21800C4F20200016841F496
:102DD00080410160006800F48040089008980590E8
:102DE000FFE7FFE741F21800C4F20200016841F07A
:102DF00004010160006800F0040007900798049047
:102E0000FFE74FF40070099002200A9003200C9015
:102E100040F60000C4F2010009A903900291FEF7F8
:102E2000ADF94FF48060099000200A900B9003994F
:102E3000019008460299FEF7A1F92520009001991A
:102E4000019AFEF75FFC0098FEF750FCFFE70EB01A
:102E500080BD000080B587B013468C46864605903D
:102E60000491ADF80E20059890F83A0020280293BE
:102E7000CDF804C0CDF800E04CD1FFE7049800285D
:102E800005D0FFE7BDF80E00002804D1FFE70120C0
:102E90008DF81B0042E0FFE7059890F83800012804
:102EA00004D1FFE702208DF81B0037E005980121CF
:102EB00080F83810FFE7FFE7049805998862BDF8AD
:102EC0000E0005998885BDF80E000599C8850598FE
:102ED0000021C1630598222180F83A10FFE7059888
:102EE000002180F83810FFE705980068C16841F4B8
:102EF0008071C16005980068416941F0010141613C
:102F000005980068C16841F02001C16000208DF87B
:102F10001B0003E002208DF81B00FFE79DF81B005B
:102F200007B080BD80B584B001460390039840F699
:102F3000DC02C2F200029042029117D1FFE740F694
:102F4000DC10C2F20000017840F6DE12C2F200028C
:102F50000190104603F05EF840F6DC00C2F200007B
:102F600001220199FFF776FF0090FFE704B080BDD2
:102F7000B0B58CB09C4696460C4605460A90099121
:102F8000ADF822200793002005900A9890F83900A8
:102F90002028CDF810C0CDF80CE00294019540F047
:102FA0009F80FFE70998002805D0FFE7BDF82200C1
:102FB000002804D1FFE701208DF82F0094E0FFE7FF
:102FC0000A9890F83800012804D1FFE702208DF814
:102FD0002F0089E00A98012180F83810FFE7FFE709
:102FE0000A980021C1630A98212180F83910FEF760
:102FF0009FFA0590BDF822000A998884BDF8220046
:103000000A99C884FFE70A98C08C00284AD0FFE7D5
:103010000A98C18C0139C1840A988068B0F5805F34
:1030200027D1FFE70A98059B07996A46116080211E
:10303000002201F059FC002804D0FFE703208DF89E
:103040002F0051E009980690069800886FF35F20E2
:103050000A99096848600A980069002804D1FFE7C6
:1030600009980230099003E0099801300990FFE7C0
:1030700017E00A98059B07996A4611608021002293
:1030800001F032FC002804D0FFE703208DF82F0068
:103090002AE00998411C099100780A99096848605A
:1030A000FFE7B0E70A98059B07996A46116040213F
:1030B000002201F019FC002804D0FFE703208DF85E
:1030C0002F0011E00A98202180F83910FFE70A98B4
:1030D000002180F83810FFE700208DF82F0003E072
:1030E00002208DF82F00FFE79DF82F000CB0B0BD37
:1030F00082B001460190009102B07047FFE7FEE701
:1031000080B596B000201590149013901290FFE7B0
:1031100041F21800C4F20200016841F010010160A0
:10312000006800F01000119011980D90FFE7FFE784
:1031300041F21800C4F20200016841F02001016070
:10314000006800F02000109010980C90FFE7FFE757
:1031500041F21800C4F20200016841F0040101606C
:10316000006800F004000F900F980B90FFE7FFE756
:1031700041F21800C4F20200016841F00801016048
:10318000006800F008000E900E980A90FFE741F2E8
:103190000000C4F201004FF4005100220990089190
:1031A0000792FEF7A3F940F60000C4F20100F021F7
:1031B00006900591079AFEF799F940F60040C4F28F
:1031C00001004FF4407104900391079AFEF78EF9C5
:1031D0000898129001211391079A14924FF0020E51
:1031E000CDF854E012AB0998029119460193CDF83D
:1031F00000E0FDF7C3FF0598129002991391079A1A
:103200001492009B159306980199FDF7B7FF40F6BD
:103210000140129007981390149004980199FDF7BB
:10322000ADFFC02012900798139002991491049852
:103230000199FDF7A3FF03981290112113910799AB
:103240001491009A159204980199FDF797FF16B012
:1032500080BD000080B58EB000200D900C900B90CA
:103260000A900990089007900690059004900390AA
:103270000290019040F65C01C2F200014FF08042E2
:103280000A6040F2CF224A60886040F2CF72CA6082
:103290000861802088610846FFF716F8002803D0EF
:1032A000FFE7FDF77BFBFFE74FF480500A9040F605
:1032B0005C00C2F200000AA9FFF776F8002803D0EC
:1032C000FFE7FDF76BFBFFE740F65C00C2F2000092
:1032D000FFF76CFB002803D0FFE7FDF75FFBFFE77C
:1032E00000200890099040F65C00C2F2000008A996
:1032F000FEF79AFF002803D0FFE7FDF74FFBFFE73B
:1033000060200190002002900390059040F65C013F
:10331000C2F2000101AA009008461146009AFFF788
:1033200095FA002803D0FFE7FDF738FBFFE740F6EA
:103330005C00C2F20000FFF753FA0EB080BD00003F
:1033400080B540F6DC00C2F2000043F60001C4F292
:10335000010101604FF4E131416000218160C160F1
:1033600001610C2242618161C161FFF7C3FC002849
:1033700003D0FFE7FDF712FBFFE780BDFFE7FEE7A5
:10338000FFE7FEE780B58BB013468C4686460A9071
:10339000099108920A9800F0070007900798C0F179
:1033A000070005280493CDF80CC0CDF808E003D33E
:1033B000FFE70420019004E00798C0F107000190A6
:1033C000FFE70198069007980430062803D8FFE726
:1033D0000020009003E0079803380090FFE7009872
:1033E000059009980699012202FA01F10139084075
:1033F00005998840089B02FA01F1013919400843F8
:103400000BB080BD81B000208DF80200FFE79DF871
:103410000200072823DCFFE700208DF80300FFE708
:103420009DF803007F2813DCFFE79DF8020040F2BF
:103430002801C2F2000101EBC0109DF80310002228
:103440004254FFE79DF8030001308DF80300E7E7E1
:10345000FFE79DF8020001308DF80200D7E701B0C8
:1034600070470000B0B586B09C4696460C460546AF
:103470008DF817008DF816108DF815208DF8143082
:103480009DF817008028CDF80CC0CDF808E0019415
:10349000009501DBFFE764E09DF81600402801DBA2
:1034A000FFE75EE09DF817009DF81510084481289D
:1034B00007DBFFE79DF81700C0F180008DF81500CD
:1034C000FFE79DF816009DF814100844412807DB1B
:1034D000FFE79DF81600C0F140008DF81400FFE7EB
:1034E0009DF816008DF81200FFE79DF812009DF878
:1034F00016109DF814201144884232DAFFE79DF837
:1035000017008DF81300FFE79DF813009DF81710C2
:103510009DF81520114488421CDAFFE79DF812003F
:1035200000F00701012202FA01F100F0F80040F278
:103530002802C2F2000202EB00109DF81320835C07
:1035400023EA01018154FFE79DF8130001308DF853
:103550001300D9E7FFE79DF8120001308DF8120043
:10356000C3E706B0B0BD000080B584B03220FDF7DF
:1035700071FC0120019000F031FB019800F042FB4A
:1035800004B080BD80B582B001468DF807000020F0
:103590008DF806000091FFE79DF8060007281CDC67
:1035A000FFE79DF807009DF80610802222FA01F13E
:1035B0000840002818BF012000F024FB4FF0010054
:1035C00000F00CFB4FF0000000F008FBFFE79DF857
:1035D000060001308DF80600DEE7012000F0FEFA5B
:1035E000002000F0FBFA02B080BD000080B582B080
:1035F0000120019000F006FB019800F0EFFA002096
:10360000009000F0FFFA009800F0E8FA02B080BDE8
:1036100080B582B0002000F0F5FA0120019000F0A2
:10362000DDFA019800F0EEFA02B080BD80B5FFF738
:103630009BFFAE2000F0FAFAD52000F0F7FA8020C8
:1036400000F0F4FAA82000F0F1FA3F2000F0EEFAC2
:10365000D32000F0EBFA002000F0E8FA402000F060
:10366000E5FAA12000F0E2FAC82000F0DFFADA2043
:1036700000F0DCFA122000F0D9FA812000F0D6FA2E
:10368000CF2000F0D3FAD92000F0D0FAF12000F0DA
:10369000CDFADB2000F0CAFA302000F0C7FAA420EF
:1036A00000F0C4FAA62000F0C1FA8D2000F0BEFAA6
:1036B000142000F0BBFAAF2000F0B8FA80BD000083
:1036C00085B00A46034604900391012002900192BE
:1036D0000093FFE70398411E0391002805D0FFE700
:1036E0000498029948430290F4E7029805B07047A5
:1036F00080B584B00A4603468DF80F008DF80E1091
:103700009DF80F0040F0B0000292019300F08EFA95
:103710009DF80E00102141EA101000F087FA9DF884
:103720000E0000F00F0000F081FA04B080BD000030
:10373000B0B588B09C4696460C4605468DF81F00ED
:103740008DF81E108DF81D208DF81C309DF81C0082
:103750000828CDF818C0CDF814E00494039518D1CA
:10376000FFE79DF81D0049F2CF01C0F6000101EB13
:103770000010A0F500709DF81E109DF81F206B46EC
:1037800018600820102302901046029A00F0B0F84A
:103790001EE09DF81C00062819D1FFE79DF81D00CA
:1037A00000EB400048F69561C0F6000101EB4000D7
:1037B000C0389DF81E109DF81F206B46186006202B
:1037C000082301901046019A00F092F8FFE7FFE706
:1037D00008B0B0BD80B58AB013468C4686468DF8D9
:1037E00027008DF82610089200208DF81F008DF814
:1037F0001C00ADF81A008DF81D000593CDF810C01F
:10380000CDF80CE0FFE708989DF81D10405C0028FB
:103810006BD0FFE708989DF81D10405C9DF81F10C5
:103820000DF11A0250549DF81F0001308DF81F0051
:103830009DF81F00022851DBFFE700208DF81F00D4
:103840008DF81E00FFE79DF81E0048F69E21C0F689
:103850000001232200FB021049F61101C0F600010D
:10386000FCF7A2FC002818D0FFE79DF81E0048F6E0
:103870009E21C0F60001232200FB02100DF11A0167
:10388000FCF792FC002801D1FFE706E0FFE79DF876
:103890001E0001308DF81E00D5E79DF827009DF829
:1038A0001D100131F02202EAC101084410389DF8D0
:1038B0001E1048F69E22C0F60002232301FB0321BE
:1038C00003319DF826206B461960C0B21021029189
:1038D0001146029A029B00F00BF8FFE7FFE79DF804
:1038E0001D0001308DF81D008DE70AB080BD00007D
:1038F00070B588B0DDF830C09E4614460D460646C9
:103900008DF81F008DF81E108DF81D208DF81C30CD
:103910009DF81F008028CDF814E0049403950296CA
:10392000CDF804C001DBFFE799E09DF81E004028B8
:1039300001DBFFE793E09DF81C309DF81D209DF80A
:103940001E109DF81F00FFF78DFD00208DF81A0056
:10395000FFE79DF81A009DF81C100139CA1701EB0A
:103960005271012202EBE101884278DAFFE7002080
:103970008DF81B00FFE79DF81B009DF81D10884285
:1039800066DAFFE79DF81F009DF81B1008448028A9
:1039900001DBFFE75CE09DF81E009DF81A1001EBCB
:1039A000D000082801DBFFE759E00C989DF81A10B9
:1039B0009DF81D209DF81B3001FB0232805C9DF8B4
:1039C0001E2002F0070C00FA0CF001EBD20140F2CD
:1039D0002802C2F2000202EBC1119DF81F201A4416
:1039E0008B5C184388549DF81E009DF81A1001EB5B
:1039F000D0000130082801DBFFE723E00C989DF898
:103A00001A109DF81D209DF81B3001FB0232805CCE
:103A10009DF81E2002F0070CCCF1080C20FA0CF0E7
:103A200001EBD20140F22802C2F2000202EBC11106
:103A30009DF81F201A44114491F88020104381F80A
:103A40008000FFE79DF81B0001308DF81B0092E716
:103A5000FFE79DF81A0001308DF81A0079E708B0E9
:103A600070BD000070B58CB0DDF840C09E461446B5
:103A70000D4606468DF82F008DF82E100A928DF80F
:103A800027308DF826C000208DF82500CDF820E0E5
:103A9000079406950596FFE79DF825009DF82710E9
:103AA000884238DAFFE79DF82F009DF825109DF831
:103AB000262001FB02000A9A9DF82730591A013985
:103AC0009DF82E304FF00A0C04906046039202934A
:103AD000FFF7F6FD0399B1FBF0F04CF6CD41CCF6C3
:103AE000CC41A0FB0112D20802EB8202A0EB420003
:103AF00040F030020498C0B29DF82630DDF808C0CE
:103B000001916146FFF714FEFFE79DF825000130A3
:103B10008DF82500C0E70CB070BD0000B0B58AB0CC
:103B20009C4696460C4605468DF827008DF82610D3
:103B300008928DF81F3000208DF81E00CDF818C0B7
:103B4000CDF814E004940395FFE708989DF81E1043
:103B5000405C00281CD0FFE79DF827009DF81E1050
:103B60009DF81F2001FB0200089BC0B2595C9DF824
:103B7000263002911946029B01921A46019BFFF7DB
:103B8000D7FDFFE79DF81E0001308DF81E00DCE731
:103B90000AB0B0BD80B582B000208DF80700FFE705
:103BA0009DF80700072817DCFFE79DF807000021B4
:103BB000FFF79EFD9DF8070040F22801C2F20001C8
:103BC00001EBC010802100F047F8FFE79DF80700E7
:103BD00001308DF80700E3E702B080BD80B582B008
:103BE00001468DF807009DF8072040F60040C4F21A
:103BF00001004FF4807300911946FDF777FC02B085
:103C000080BD000080B582B001468DF807009DF8A8
:103C1000072040F60040C4F201004FF40073009109
:103C20001946FDF763FC02B080BD000080B582B08C
:103C300001468DF807000091FFF7D8FC7820FFF7C8
:103C4000A1FC0020FFF79EFC9DF80700FFF79AFCFF
:103C5000FFF7DEFC02B080BD80B584B00A460346A3
:103C600003908DF80B1001920093FFF7BFFC7820B2
:103C7000FFF788FC4020FFF785FC00208DF80A0044
:103C8000FFE79DF80A009DF80B1088420DDAFFE768
:103C900003989DF80A10405CFFF774FCFFE79DF85D
:103CA0000A0001308DF80A00EBE7FFF7B1FC04B021
:103CB00080BD0000000000000000000000000000C7
:103CC000EFF30980BFF36F8F0D4B1A6820E9F00FF7
:103CD00010602DE908404FF0500080F3118803F088
:103CE00051F84FF0000080F31188BDE808401968D2
:103CF0000868B0E8F00F80F30988BFF36F8F704752
:103D00004009002080B540F60040C4F20100402187
:103D1000FDF7D0FB002843D1FFE740F22840C2F274
:103D20000000007800280ED1FFE740F22840C2F2E0
:103D3000000001210170FDF7FBFB40F22C41C2F2B3
:103D400000010860FFE740F22840C2F2000000785E
:103D5000002824D0FFE7FDF7EBFB40F22C4EC2F227
:103D6000000EDEF800E0A0EB0E0040F6B93E704514
:103D700015D3FFE7FCF7BEFDFFE740F60040C4F2B5
:103D800001004021FDF796FB002801D1FFE7F4E791
:103D900040F22840C2F2000000210170FFE706E077
:103DA00040F22840C2F2000000210170FFE780BD10
:103DB00084B001460390039840F20802C2F2000268
:103DC0001268D20844F6D353C1F26203A2FB032364
:103DD0009B095843029001910092FFE700BFFFE763
:103DE0000298411E02910028F8D1FFE704B0704705
:103DF00080B582B001468DF806009DF806000028C7
:103E000000910BD1FFE740F60040C4F201004FF4EF
:103E10000061FDF74FFB8DF8070014E09DF80600E8
:103E200001280BD1FFE740F60040C4F201004FF437
:103E30008061FDF73FFB8DF8070004E0FFE70020FD
:103E40008DF80700FFE79DF8070002B080BD000075
:103E500080B540F60000C4F2010040210022FDF7C9
:103E600045FB80BD80B540F60000C4F20100402152
:103E70000122FDF73BFB80BD0000000000000000B8
:103E8000074B19680868B0E8F00F80F30988BFF3A2
:103E90006F8F4FF0000080F311884EF00D0E7047C9
:103EA0004009002080B582B04FF0500080F31188A7
:103EB000BFF36F8FBFF34F8F009003F0ABFD00286F
:103EC00008D0FFE74EF60450CEF200004FF08051CC
:103ED0000160FFE700200190019880F3118802B093
:103EE00080BD000080B592B008A828210290FCF7A0
:103EF00032F900200790069005900490039001216C
:103F000008914FF4803ECDF824E00A900C910220F5
:103F10000F90CDF840E04FF4E01011900298FDF7BB
:103F200017FE002803D0FFE7FCF738FDFFE70F205E
:103F3000039002200490002105914FF480620692C4
:103F4000079103A9019008460199FDF709FC002893
:103F500003D0FFE7FCF722FDFFE712B080BD0000B1
:103F600041F20000C4F20200016841F00101016069
:103F700041F20401C4F202010A680023CFF6FF03F4
:103F80001A400A6002684FF6FF73CFF6F6631A40D4
:103F90000260026822F480220260086820F4FE00B9
:103FA000086041F20800C4F202004FF41F010160F2
:103FB0004EF60850CEF200004FF0006101607047ED
:103FC00080B540F69C00C2F20000FEF7C3FA80BD47
:103FD00085B00A4603460490039104980068029055
:103FE000049842F60041C4F2010188420192009314
:103FF00015D0FFE70498B0F1804F10D0FFE7049888
:1040000040F20041C4F20001884208D0FFE7049862
:1040100040F60001C4F2000188420AD1FFE702988D
:1040200020F07000029003984068029908430290C3
:10403000FFE7049842F60041C4F20101884215D01E
:10404000FFE70498B0F1804F10D0FFE7049840F2EA
:104050000041C4F20001884208D0FFE7049840F60E
:104060000001C4F2000188420AD1FFE7029820F45F
:10407000407002900398C068029908430290FFE7DD
:10408000029820F080000399496908430290029841
:1040900004990860039880680499C86203980068CE
:1040A00004998862049842F60041C4F201018842F2
:1040B00005D1FFE70398006904990863FFE70498B6
:1040C0000121416105B0704780B587B013468C4629
:1040D0008646069005910492059800F01F00012184
:1040E00001FA00F00390039806990A6A22EA000098
:1040F00008620498059901F01F01884006990A6A30
:10410000104308620293CDF804C0CDF800E007B078
:1041100080BD0000B0B589B09C4696460C46054669
:104120000890079106920593089880680490049877
:1041300020F47F40049007980699059A41EA0221ED
:104140000843049908430490049808998860CDF8BE
:104150000CC0CDF808E00194009509B0B0BD000096
:1041600085B00A4603460490039104988068029043
:10417000029820F07000029003980299084340F0E2
:10418000070002900298049988600192009305B09C
:104190007047000087B00A460346069005910698CE
:1041A000016A21F0010101620698006A03900698F5
:1041B00040680290069880690490049820F070008E
:1041C0000490049820F00300049005980068049976
:1041D00008430490039820F002000390059880683B
:1041E000039908430390069842F60041C4F2010186
:1041F0008842019200930ED1FFE7039820F0080057
:1042000003900598C068039908430390039820F031
:1042100004000390FFE7069842F60041C4F2010152
:10422000884213D1FFE7029820F480700290029830
:1042300020F40070029005984069029908430290AA
:1042400005988069029908430290FFE70298069951
:104250004860049806998861059840680699486303
:1042600003980699086207B07047000087B00A46B5
:104270000346069005910698016A21F0100101623B
:104280000698006A03900698406802900698806934
:104290000490049820F4E0400490049820F44070C6
:1042A000049005980068049941EA0020049003985E
:1042B00020F02000039005988068039941EA0010DF
:1042C0000390069842F60041C4F20101884201922F
:1042D00000930FD1FFE7039820F08000039005982A
:1042E000C068039941EA00100390039820F0400051
:1042F0000390FFE7069842F60041C4F201018842AC
:1043000015D1FFE7029820F480600290029820F413
:104310000060029005984069029941EA800002908D
:1043200005988069029941EA80000290FFE70298AF
:10433000069948600498069988610598406806992E
:10434000886303980699086207B0704787B00A46E9
:104350000346069005910698016A21F48071016276
:104360000698006A03900698406802900698C06913
:104370000490049820F070000490049820F003004A
:10438000049005980068049908430490039820F469
:104390000070039005988068039941EA002003901B
:1043A000069842F60041C4F201018842019200934E
:1043B0000FD1FFE7039820F4006003900598C068D0
:1043C000039941EA00200390039820F48060039051
:1043D000FFE7069842F60041C4F20101884215D178
:1043E000FFE7029820F480500290029820F40050D9
:1043F000029005984069029941EA001002900598E0
:104400008069029941EA00100290FFE7029806993C
:10441000486004980699C861059840680699C86381
:1044200003980699086207B07047000087B00A46F3
:104430000346069005910698016A21F480510162B5
:104440000698006A03900698406802900698C06932
:104450000490049820F4E0400490049820F4407004
:10446000049005980068049941EA0020049003989C
:1044700020F40050039005988068039941EA0030C9
:104480000390069842F60041C4F20101884201926D
:1044900000930BD1FFE7029820F48040029005982A
:1044A0004069029941EA80100290FFE7029806995C
:1044B000486004980699C8610598406806990864A0
:1044C00003980699086207B07047000080B588B06D
:1044D00013468C4686460790069105920798006A17
:1044E00003900798016A21F0010101620798806931
:1044F0000490049820F0F00004900598049941EA93
:1045000000100490039820F00A0003900698039985
:1045100008430390049807998861039807990862F3
:104520000293CDF804C0CDF800E008B080BD0000D3
:1045300080B588B013468C46864607900691059252
:104540000798016A21F010010162079880690490C0
:104550000798006A0390049820F47040049005982E
:10456000049941EA00300490039820F0A0000390E1
:104570000698039941EA001003900498079988610E
:104580000398079908620293CDF804C0CDF800E0C3
:1045900008B080BD80B584B0014603900398406A9E
:1045A000029002980022C2850298C284029801916A
:1045B000FEF78AFA04B080BD82B0014601900198EE
:1045C0000068C26822F49072C26001980068426973
:1045D00022F0010242610198202280F83A200091E5
:1045E00002B0704780B582B0014601900198006822
:1045F000C26822F04002C2600198202280F839206F
:1046000001980091FEF774FD002002B080BD00000B
:1046100080B584B001460290029890F83A002228B2
:1046200000916AD1FFE702988068B0F5805F20D1E1
:10463000FFE70298806A01900298006900280CD177
:10464000FFE70298006840686FF35F2001990880D7
:104650000298816A023181620AE00298006840682B
:10466000C0B2019908800298816A01318162FFE736
:1046700019E002980069002809D1FFE70298006854
:10468000406802998A6A531C8B6210700AE0029893
:104690000068406800F07F0002998A6A531C8B62B0
:1046A0001070FFE7FFE70298C18D0139C1854FF611
:1046B000FF7001421DD1FFE702980068C16821F038
:1046C0002001C16002980068C16821F48071C16056
:1046D00002980068416921F001014161029820219E
:1046E00080F83A100298FEF71DFC00208DF80F00AC
:1046F00007E000208DF80F0003E002208DF80F0086
:10470000FFE79DF80F0004B080BD000080B588B0C1
:104710000146079007980068006920F44050079A06
:104720001368D2681043186107988268036940696A
:104730001A431043069007980068C06841F20C6263
:104740009043069A1043079A1268D0600798006851
:10475000406920F44070079A1368926910435861C9
:104760000798006843F60002C4F2010290420491E7
:1047700031D1FFE7FDF778F9059005984FF0190E54
:1047800000FB0EF0DDF81CE0DEF80010DEF804E0BF
:104790004FEA8E0EB0FBFEF048F21F5EC5F2EB1E34
:1047A000A0FB0E235B094FF0640C03FB1C004FF0D1
:1047B000320C0CEB0010A0FB0E0C4FF0F00E0EEACA
:1047C0005C1E0EEB0313CCF3431C43EA0C038B601B
:1047D0000392029030E0FDF733F9059005984FF011
:1047E000190E00FB0EF0DDF81CE0DEF80010DEF81C
:1047F00004E04FEA8E0EB0FBFEF048F21F5EC5F2F9
:10480000EB1EA0FB0E235B094FF0640C03FB1C00A6
:104810004FF0320C0CEB0010A0FB0E0C4FF0F00E22
:104820000EEA5C1E0EEB0313CCF3431C43EA0C03AD
:104830008B6001920090FFE708B080BD84B0014614
:104840000290029890F839002128009143D1FFE7A7
:1048500002988068B0F5805F1AD1FFE70298006A7D
:104860000190019800886FF35F2002990968486001
:1048700002980069002805D1FFE70298016A023119
:10488000016204E00298016A01310162FFE708E079
:104890000298016A4A1C0262087802990968486015
:1048A000FFE70298C18C0139C1844FF6FF700142C5
:1048B0000DD1FFE702980068C16821F08001C16056
:1048C00002980068C16841F04001C160FFE7002024
:1048D0008DF80F0003E002208DF80F00FFE79DF830
:1048E0000F0004B07047000070B58AB0DDF838C022
:1048F0009E4614460D460646089007918DF81B20EB
:104900000593CDF810E0039402950196CDF800C010
:10491000FFE708980068006807990840401AB0FA55
:1049200080F040099DF81B10884233D1FFE70E98B4
:10493000013000282DD0FFE70E9800280BD0FFE7AC
:10494000FCF7F6FDDDF814E0A0EB0E00DDF838E032
:1049500070451DD9FFE708980068C16821F4D0713F
:10496000C16008980068416921F00101416108981F
:10497000202180F83910089880F83A10FFE708984D
:10498000002180F83810FFE703208DF8270005E0AC
:10499000FFE7BEE700208DF82700FFE79DF827001E
:1049A0000AB070BD80B540F6DC00C2F20000FEF730
:1049B00091F880BDFFE7FEE780B540F60000C4F245
:1049C000010020210022FCF791FD80BD80B540F65A
:1049D0000000C4F2010020210122FCF787FD80BD08
:1049E00082B001468DF807009DF90700002800916C
:1049F0000FDBFFE79DF9070000F01F01012202FA1B
:104A000001F140094EF20012CEF2000242F82010ED
:104A1000FFE702B0704700004EF60C50CEF20000E7
:104A20000068C0F30220704784B00A4603468DF840
:104A30000F0002919DF90F000028019200930ADBFC
:104A4000FFE7029800019DF90F104EF20042CEF2EE
:104A5000000288540BE0029800019DF80F1001F04D
:104A60000F014EF61452CEF200028854FFE704B054
:104A70007047000084B001460390039800F00700DF
:104A800001904EF60C50CEF2000002680292029A9B
:104A90004FF6FF031A400292029A019B42EA032258
:104AA0000023C0F2FA531A430292029A0260009164
:104AB00004B0704780B58CB00A20012100220B9110
:104AC0000A9202F03BFA43F2B821C2F200010860F8
:104AD00003200B99099008460A99099A02F02EFAC8
:104AE00043F21831C2F20001086068460A99416039
:104AF0000B9A026044F6F550C0F6000049F2D171FD
:104B0000C0F600014FF0800E72460A9BCDF820E0FF
:104B100002F0FEFE69460A9A4A60099B0B6046F263
:104B20008941C0F6000149F2C77EC0F6000E079029
:104B300008467146089A0A9B02F0EAFE69460A9AFC
:104B40004A600B9B0B6044F67D61C0F6000149F2A0
:104B5000A47EC0F6000E4FF400720690084671461F
:104B60000A9B02F0D5FE69460A9A4A6002230B604E
:104B700046F25511C0F6000149F2BC73C0F60003BD
:104B8000059008461946089A0A9B02F0C1FE43F2B6
:104B9000BC21C2F200016A4651600B99116044F6D3
:104BA0002952C0F6000249F2AE71C0F6000104902D
:104BB0001046089A0A9B02F0ABFE039001F0C2FF78
:104BC0000CB080BD80B58AB0002008900390FCF73F
:104BD000A7FADDF80CE0CDF810E04FF60041C0F682
:104BE000000106910121079104A908AA0290084634
:104BF0001146FCF757F9002808D0FFE7FCF7E2F967
:104C00004FF0010E8DF827E001900CE0FCF7DAF987
:104C100040F2734EC2F2000E00218EF800108DF8A3
:104C200027100090FFE79DF827000AB080BD000024
:104C300080B58AB04FF60040C0F600000990002011
:104C40008DF823008DF80B00FFE79DF80B0031284D
:104C50003FDCFFE7099814300021C0F601018842CB
:104C600001D3FFE735E0099903A81422FBF75AFAAC
:104C70009DF81E10FF29019001D1FFE729E09DF862
:104C80001E0001281BD1FFE79DF82300312815DC09
:104C9000FFE79DF8230000EB800040F27441C2F270
:104CA000000101EB800003A91422FBF73BFA9DF8F9
:104CB000231001318DF823100090FFE7FFE70998DA
:104CC00014300990FFE79DF80B0001308DF80B00C0
:104CD000BBE79DF8230040F27341C2F20001087067
:104CE000099840F21001C2F20001086000200AB0E9
:104CF00080BD000080B586B00A4603460590049149
:104D000040F6DC00C2F2000005A94FF0010C6FF084
:104D10007F4E0392624602937346FEF729F9059986
:104D20000190084606B080BD80B586B0FFE743F22B
:104D30001830C2F200000068002102F023FC0128B4
:104D400029D1FFE700208DF8170043F2B821C2F205
:104D5000000109680DF11702049008461146049AF3
:104D6000049B02F0A3F941F288310390084601F058
:104D700031FDFFE70120FFF73BF8002804D1FFE7F2
:104D8000322001F027FDF5E740F61C10C2F20000CA
:104D900001210170FFE70020FFF72AF88DF81600C7
:104DA0009DF81600012819D1FFE740F61C10C2F249
:104DB00000000078002811D1FFE701208DF81500D0
:104DC00043F2B820C2F2000000680DF11501002284
:104DD0000292029B02F06AF90190FFE79DF816002B
:104DE00040F61C11C2F200010870642001F0F2FCD0
:104DF0009DE7000080B5FFE7FEF784FF00F018F89C
:104E0000642001F0E7FCF7E780B540F60000C4F24B
:104E1000010080210122FCF769FB80BD80B540F6CE
:104E20000000C4F2010080210022FCF75FFB80BD7E
:104E300080B540F60040C4F201000121FCF73AFBC6
:104E4000012803D1FFE7FFF7DFFF02E0FFF7E6FFEE
:104E5000FFE780BD80B582B000200190FCF77CFBAD
:104E60000090FFF73FF8FEF74BF9FEF769FAFEF7FF
:104E7000F1F9FFF71FFEFFE7FEE7000080B59EB0E7
:104E80004FF0FF301D90FFF7D3FE1190FEF7CEFBE1
:104E9000FEF7B8FA49F2F272C0F6000220204FF095
:104EA000000E7146CDF840E0FEF794FC49F60B0287
:104EB000C0F60002102010990F9008460F99FEF7D7
:104EC00089FC49F2FB72C0F6000246200F99FEF7FA
:104ED00081FC49F60202C0F6000221211098FEF77B
:104EE00079FC684608210160282003230F9A0E915F
:104EF0001146109AFEF7B6FD40F21400C2F200000F
:104F0000027868460E9901606E2002230F99FEF721
:104F1000A9FDFEF73FFE10981C901B901A90199067
:104F200018901790FFE740F23040C2F2000000787E
:104F3000002800F09581FFE740F23040C2F2000007
:104F40000021017040F25340C2F200001690169802
:104F500049F29F71C0F60001FBF726F9002811D134
:104F6000FFE701F0C7F8FBF7D9FEFEF771FFFFF787
:104F700023FD43F2BC2EC2F2000EDEF8000001F069
:104F80003BFED0E7169849F29971C0F60001FBF795
:104F90000BF9002811D1FFE701F062F8FEF762FF7C
:104FA000FBF7B2FEFFF708FD43F2BC2EC2F2000E83
:104FB000DEF8000001F054FDB5E702F021FD159088
:104FC000169819A9FBF7F0F8002809D1FFE7159802
:104FD0001899401A41F28731884201D8FFE7A2E7C9
:104FE000169849F2EF71C0F60001FBF7BFF8149074
:104FF0004FF6FF70ADF84E000020ADF84C0014984D
:10500000002845D0FFE714980230FBF7E4F8ADF82C
:105010004C00169919A8FBF7D5F80D9002F0F0FC9A
:1050200018901498002101701698FBF73DFEADF81A
:105030004E00BDF94E000130002806D1FFE716985A
:10504000FBF710FCADF84E00FFE7BDF94E00013054
:10505000002819D0FFE7BDF84C00BDF94E1001EB58
:10506000810140F27442C2F2000202EB81010A8A1D
:105070001044088249F2DE72C0F60002002030219E
:105080000823FEF74BFDFFE701F09CF80C909EE033
:105090001698FBF709FEADF84E00BDF94E00013041
:1050A000002806D1FFE71698FBF7DCFBADF84E00B1
:1050B000FFE7BDF94E0000EB800040F27441C2F200
:1050C000000101EB8000008A01285FDBFFE740F26E
:1050D0002000C2F200000078012857D1FFE740F21B
:1050E0002000C2F200000021017040F21400C2F260
:1050F00000000078012808DBFFE740F21400C2F24C
:105100000000017801390170FFE7BDF94E0000EBA6
:10511000800040F27441C2F2000101EB8000018A7C
:105120000A390182169919A8FBF74CF80B9002F086
:1051300067FC189002208DF84B0043F2B820C2F2B1
:10514000000000680DF14B014FF0000E72467346EF
:10515000CDF828E001F0AAFF0990FBF7DFFDFEF78C
:1051600077FE49F28872C0F60002302108230A98BF
:10517000FEF7D4FC43F21830C2F2000000680A992E
:105180000A9A0A9B01F092FF08901CE040F220006E
:10519000C2F200000078002801D1FFE7C3E6FBF768
:1051A000B3FDFEF755FEFFF711FC02F029FC179046
:1051B00049F27772C0F60002002030210823FEF782
:1051C000ADFCFFE7FFE700F0FDFF0790FFE7BDF94B
:1051D0004E000130002842D0FFE7BDF94E0000EB41
:1051E000800040F27441C2F2000101EB8000028AAB
:1051F00068460823036028204FF0120C4FF0030E7E
:105200000691614605937346CDF810C0FEF72AFC5F
:1052100040F21400C2F2000002786846059901606D
:105220006E2002230499FEF71DFC49F26672C0F657
:1052300000023C20212103900291059BFEF76EFCA9
:10524000BDF94E0000EB8000069901EB8002039847
:105250000299059BFEF762FCFEF79CFCFFE7FFE767
:105260001798002812D0FFE702F0CAFBDDF85CE0D7
:10527000A0EB0E0041F2893E704507D3FFE7FFF730
:105280009BFB4FF0000ECDF85CE0FFE70A2001F039
:10529000A1FA48E680B586B00A4603460590049117
:1052A00043F21430C2F200000068029040F6401051
:1052B000C2F20000006804300192009301F0F6F899
:1052C000002812D1FFE740F64010C2F2000000684B
:1052D000C06A012101FA00F043F28021C2F200010C
:1052E0000A6822EA0000086000E0FFE70598013044
:1052F000002811D1FFE7049800280DD0FFE740F601
:105300004010C2F200000068011D43F2EC20C2F21E
:10531000000001F04FF93DE0029805990844039020
:10532000039840F64011C2F20001096848600398F2
:10533000029988420ED2FFE740F64C10C2F20000FC
:10534000006840F64011C2F200010968043101F022
:10535000F7F81EE040F64410C2F20000006840F684
:105360004011C2F200010968043101F0E9F8039824
:1053700043F2C421C2F200010968884207D2FFE764
:10538000039843F2C421C2F20001086000E0FFE785
:10539000FFE7FFE706B080BD80B584B0014603900B
:1053A000029101F029F943F26C20C2F20000016879
:1053B0000131016040F64010C2F200000068002890
:1053C00013D1FFE7039840F64011C2F200010860D4
:1053D00043F26C20C2F200000068012803D1FFE70D
:1053E00000F0C6FA00E0FFE71DE043F2E020C2F261
:1053F00000000068002814D1FFE740F64010C2F218
:1054000000000068C06A0399C96A884207D8FFE7AC
:10541000039840F64011C2F20001086000E0FFE787
:1054200000E0FFE7FFE743F27C20C2F200000168E2
:10543000013101600068039948640398C06A012142
:1054400001FA00F043F28021C2F200010A68104321
:1054500008600398C16A01EB810140F65012C2F264
:10546000000202EB8101043001900846019901F02D
:10547000A1F801F0F1F843F2E020C2F20000006868
:10548000002819D0FFE740F64010C2F20000006883
:10549000C06A0399C96A88420CD2FFE74EF60450ED
:1054A000CEF200004FF080510160BFF34F8FBFF389
:1054B0006F8F00E0FFE700E0FFE704B080BD000071
:1054C00080B582B0FFE743F27020C2F200000068AE
:1054D00000282CD0FFE701F08FF843F2003EC2F223
:1054E000000EDEF80CE0DEF80CE0CDF804E0DDF8AC
:1054F00004E00EF1040000F0D9FF43F26C2EC2F27A
:10550000000EDEF800100139CEF8001043F27021D1
:10551000C2F20001D1F800E0AEF1010EC1F800E0E6
:10552000009001F099F8019800F0AEF8CBE702B0D6
:1055300080BD000080B586B00A4603460590049100
:105540000598006C0028039202931BD0FFE7059892
:10555000C168026C1144C16005984168C068884206
:1055600004D3FFE705980168C16000E0FFE70498F5
:105570000599CA68096C01911146019AFAF7D2FDA2
:105580000090FFE706B080BD80B58CB013468C4616
:1055900086460B900A910992002008900B98806B28
:1055A00007900B98006C00280693CDF814C0CDF836
:1055B00010E012D1FFE70B98006800280BD1FFE73D
:1055C0000B98406802F012FB08900B984FF0000E09
:1055D000C0F804E000E0FFE74EE0099800281CD185
:1055E000FFE70B980A998268006C03901046039AB3
:1055F000FAF798FD0B998A68D1F840E072448A6006
:105600000B994A6889689142029004D3FFE70B988E
:105610000168816000E0FFE72DE00B980A99C268FD
:10562000006C01901046019AFAF77CFD0B99CA684C
:10563000D1F840E0A2EB0E02CA600B990A68C96873
:105640009142009006D2FFE70B984168026C891ADC
:10565000C16000E0FFE7099802280AD1FFE7079838
:10566000002804D0FFE707980138079000E0FFE723
:1056700000E0FFE7FFE7FFE7079801300B99886339
:1056800008980CB080BD000080B582B00146019042
:105690000198006B009101F00BF8019801F008F8F7
:1056A00002B080BD83B0014602900298406A002893
:1056B000009107D0FFE70298006B0068C0F1070077
:1056C000019002E000200190FFE7019803B07047CD
:1056D00084B04FF42050009040F66220C2F20000E7
:1056E00001909DF804004007002811D0FFE70198C1
:1056F00007300190019820F007000190019840F6D2
:105700006221C2F20001401A0099081A0090FFE7D6
:1057100001980290029843F2E421C2F2000108606D
:10572000002048600299009A1144019101990839BA
:105730000191019921F007010191019940F6481268
:10574000C2F2000211601168486011680860029896
:10575000039001980399401A486010680399086003
:105760000398406843F2C021C2F200010860039828
:10577000406843F2B021C2F20001086043F2842085
:10578000C2F200004FF00041016004B07047000019
:1057900080B582B0014601900091FFE7FFF790FECF
:1057A00040F6501EC2F2000EDEF800E0BEF1020F1D
:1057B0000CD3FFE74EF60450CEF200004FF08051BC
:1057C0000160BFF34F8FBFF36F8F00E0FFE7E5E7A6
:1057D00070B58AB0DDF838C09E4614460D460646C0
:1057E0000990089107928DF81B3008980028CDF891
:1057F00014E0049403950296CDF804C003D1FFE7AA
:105800000E98006003E007980E990860FFE709987A
:105810000E99C86308980E9908640E98012101F04A
:10582000D7FB9DF81B10DDF838E08EF84C10009087
:105830000AB070BD2DE9F04391B0DDF86CC0DDF821
:1058400068E0199C189D1E461746884681461090B0
:105850000F910E920D931A98006B0E998900A52254
:105860000A960997CDF82080CDF81C90CDF818C085
:10587000CDF814E004940395FAF766FC1A98006BCF
:105880000E9900EB810004380C900C9820F0070072
:105890000C909DF83000400700280ED0FFE749F239
:1058A000BF60C0F6000049F2EF61C0F6000140F2AF
:1058B0005D3202F01FFC0290FFE700200B90FFE733
:1058C0000B980F2814D8FFE70F980B99405C1A9A91
:1058D000114481F834000F980B99405C002801D1E5
:1058E000FFE705E0FFE7FFE70B9801300B90E7E7E4
:1058F0001A98002180F843101898072803D3FFE76F
:105900000620189000E0FFE718981A99C8621898C6
:105910001A99C8641A98002101651A9804300191F7
:1059200000F004FE1A98183000F000FE1A9800618A
:105930001898C0F107001A9988611A9840621A985D
:10594000019941651A9880F858100C9810990D9A91
:1059500000F008FB1A9908601998002804D0FFE7A6
:105960001A981999086000E0FFE711B0BDE8F083CC
:1059700080B584B000200390FFE70398062810D874
:10598000FFE7039800EB800040F65011C2F20001DF
:1059900001EB800000F0B0FDFFE7039801300390B9
:1059A000EBE743F28820C2F20000029000F0A4FD71
:1059B00043F29C20C2F20000019000F09DFD43F2F2
:1059C000CC20C2F2000000F097FD43F20030C2F29A
:1059D000000000F091FD43F2EC20C2F2000000F064
:1059E0008BFD40F64410C2F20000DDF808E0C0F87C
:1059F00000E040F64C10C2F200000199016004B0D2
:105A000080BD000084B00146039043F2E420C2F25E
:105A1000000002900091FFE7029800680399884215
:105A200005D2FFE7FFE7029800680290F4E70298CA
:105A3000019001980299496808440399884209D164
:105A4000FFE70398406802994A681044486002984A
:105A5000039000E0FFE703980190019803994968DB
:105A6000084402990968884220D1FFE7029800683B
:105A700040F64811C2F20001096888420DD0FFE7E4
:105A800002980068406803994A6810444860029888
:105A9000006800680399086007E040F64810C2F209
:105AA0000000006803990860FFE704E002980068BE
:105AB00003990860FFE702980399884204D0FFE742
:105AC00003980299086000E0FFE704B07047000007
:105AD00080B584B001460390019100F08DFD0398DC
